# [schema.go](https://github.com/klaytn/klaytn/blob/dev/storage/database/schema.go) Prefix

```shell
databaseVerisionKey:  446174616261736556657273696f6e
headHeaderKey:  4c617374486561646572
headBlockKey:  4c617374426c6f636b
headBlockBackupKey:  4c617374426c6f636b4261636b7570
headFastBlockKey:  4c61737446617374
headFastBlockBackupKey:  4c617374466173744261636b7570
fastTrieProgressKey:  5472696553796e63
validSectionKey:  636f756e74
sectionHeadKeyPrefix:  7368656164
snapshotKeyPrefix:  736e617073686f74
snapshotJournalKey:  536e617073686f744a6f75726e616c
SnapshotGeneratorKey:  536e617073686f7447656e657261746f72
snapshotDisabledKey:  536e617073686f7444697361626c6564
snapshotRecoveryKey:  536e617073686f745265636f76657279
snapshotSyncStatusKey:  536e617073686f7453796e63537461747573
snapshotRootKey:  536e617073686f74526f6f74
badBlockKey:  496e76616c6964426c6f636b
headerPrefix:  68
headerTDSuffix:  74
headerHashSuffix:  6e
headerNumberPrefix:  48
blockBodyPrefix:  62
blockReceiptsPrefix:  72
txLookupPrefix:  6c
SnapshotAccountPrefix:  61
SnapshotStoragePrefix:  6f
codePrefix:  63
preimagePrefix:  7365637572652d6b65792d
configPrefix:  6b6c61792d636f6e6669672d
pruningEnabledKey:  5072756e696e67456e61626c6564
pruningMarkPrefix:  5072756e696e672d
pruningMarkValue:  01
lastPrunedBlockNumberKey:  6c6173745072756e6564426c6f636b4e756d626572
BloomBitsIndexPrefix:  6942
bloomBitsPrefix:  42
senderTxHashToTxHashPrefix:  53656e646572547848617368
governancePrefix:  676f7665726e616e6365
governanceHistoryKey:  676f7665726e616e6365496478486973746f7279
governanceStateKey:  676f7665726e616e63655374617465
databaseDirPrefix:  64617461626173654469726563746f7279
stakingInfoPrefix:  7374616b696e67496e666f
```

# RPC Call

```shell
> eth.getBlock(0)
{
  baseFeePerGas: "0x5d21dba00",
  difficulty: "0x1",
  extraData: "0x",
  gasLimit: "0xe8d4a50fff",
  gasUsed: 0,
  hash: "0x88d625e3668c8d2750813459ab13fa55fe2691e6bbf05f5ada0e5c093004c5a0",
  logsBloom: "0x00000000000000000000000000000000000000000000000000000000000000000000000000000000000000000000000000000000000000000000000000000000000000000000000000000000000000000000000000000000000000000000000000000000000000000000000000000000000000000000000000000000000000000000000000000000000000000000000000000000000000000000000000000000000000000000000000000000000000000000000000000000000000000000000000000000000000000000000000000000000000000000000000000000000000000000000000000000000000000000000000000000000000000000000000000000",
  miner: "0x0000000000000000000000000000000000000000",
  mixHash: "0x0000000000000000000000000000000000000000000000000000000000000000",
  nonce: "0x0000000000000000",
  number: 0,
  parentHash: "0x0000000000000000000000000000000000000000000000000000000000000000",
  randomReveal: "0x000000000000000000000000000000000000000000000000000000000000000000000000000000000000000000000000000000000000000000000000000000000000000000000000000000000000000000000000000000000000000000000000",
  receiptsRoot: "0x56e81f171bcc55a6ff8345e692c0f86e5b48e01b996cadc001622fb5e363b421",
  sha3Uncles: "0x1dcc4de8dec75d7aab85b567b6ccd41ad312451b948a7413f0a142fd40d49347",
  size: 1147,
  stateRoot: "0x6b43b28fcfc887a41930788a59b5bc290fbe92644666939b02ebd0abf6628ab7",
  timestamp: 1711256244,
  timestampFoS: 0,
  totalDifficulty: "0x1",
  transactions: [],
  transactionsRoot: "0x56e81f171bcc55a6ff8345e692c0f86e5b48e01b996cadc001622fb5e363b421",
  uncles: []
}
> eth.getBlock(1)
{
  baseFeePerGas: "0x5d21dba00",
  difficulty: "0x1",
  extraData: "0x",
  gasLimit: "0xe8d4a50fff",
  gasUsed: 0,
  hash: "0x3f89b730b3474c4dfab9f228883c465962f4c5d3882c0365259f0fb743b6bdf2",
  logsBloom: "0x00000000000000000000000000000000000000000000000000000000000000000000000000000000000000000000000000000000000000000000000000000000000000000000000000000000000000000000000000000000000000000000000000000000000000000000000000000000000000000000000000000000000000000000000000000000000000000000000000000000000000000000000000000000000000000000000000000000000000000000000000000000000000000000000000000000000000000000000000000000000000000000000000000000000000000000000000000000000000000000000000000000000000000000000000000000",
  miner: "0x7a3c8dd6e7c1314315f064de39b49bd342936e08",
  mixHash: "0x600ecfccd7ce6a6ce41762c634b2f03699501f3018725174a2da6f0261d0f73e",
  nonce: "0x0000000000000000",
  number: 1,
  parentHash: "0x88d625e3668c8d2750813459ab13fa55fe2691e6bbf05f5ada0e5c093004c5a0",
  randomReveal: "0x844f685d703077f5d8e046d779a3f051a09bbee663f2fda0c066262fbdfa77192f444b02272551d2fbb64cdd7c0393b70363c1c5bd838854de3ca4c39df053a5767fdc74049e96d4e20f7b5778c25daa0febf6a96c06f99b2692b9e90009bf39",
  receiptsRoot: "0x56e81f171bcc55a6ff8345e692c0f86e5b48e01b996cadc001622fb5e363b421",
  sha3Uncles: "0x1dcc4de8dec75d7aab85b567b6ccd41ad312451b948a7413f0a142fd40d49347",
  size: 761,
  stateRoot: "0x6b43b28fcfc887a41930788a59b5bc290fbe92644666939b02ebd0abf6628ab7",
  timestamp: 1711271165,
  timestampFoS: 0,
  totalDifficulty: "0x2",
  transactions: [],
  transactionsRoot: "0x56e81f171bcc55a6ff8345e692c0f86e5b48e01b996cadc001622fb5e363b421",
  uncles: []
}
> eth.getBlock(2)
{
  baseFeePerGas: "0x5d21dba00",
  difficulty: "0x1",
  extraData: "0x",
  gasLimit: "0xe8d4a50fff",
  gasUsed: 0,
  hash: "0x7e39bf79cbbb591b833ebc8ab1efa81c3fa09ff5697236ab9f7f40d63068a4c3",
  logsBloom: "0x00000000000000000000000000000000000000000000000000000000000000000000000000000000000000000000000000000000000000000000000000000000000000000000000000000000000000000000000000000000000000000000000000000000000000000000000000000000000000000000000000000000000000000000000000000000000000000000000000000000000000000000000000000000000000000000000000000000000000000000000000000000000000000000000000000000000000000000000000000000000000000000000000000000000000000000000000000000000000000000000000000000000000000000000000000000",
  miner: "0x7a3c8dd6e7c1314315f064de39b49bd342936e08",
  mixHash: "0x3fe1d8d1d87809c5ecdef88e9575eff45f942c0f0f3699929f67080c738ef449",
  nonce: "0x0000000000000000",
  number: 2,
  parentHash: "0x3f89b730b3474c4dfab9f228883c465962f4c5d3882c0365259f0fb743b6bdf2",
  randomReveal: "0x8dfd8649b0463b29f718c955271bcf170440499585d95428b03ea56b2a581f65182e77c75525bc4c736d356a0efe7d390fbd826510a88b169f37a66bc3e3d99a23eddedc2bcb4e214f5c39164b913e7ae047f4d87858400665cb2bb460e0bbad",
  receiptsRoot: "0x56e81f171bcc55a6ff8345e692c0f86e5b48e01b996cadc001622fb5e363b421",
  sha3Uncles: "0x1dcc4de8dec75d7aab85b567b6ccd41ad312451b948a7413f0a142fd40d49347",
  size: 761,
  stateRoot: "0x6b43b28fcfc887a41930788a59b5bc290fbe92644666939b02ebd0abf6628ab7",
  timestamp: 1711271194,
  timestampFoS: 0,
  totalDifficulty: "0x3",
  transactions: [],
  transactionsRoot: "0x56e81f171bcc55a6ff8345e692c0f86e5b48e01b996cadc001622fb5e363b421",
  uncles: []
}
> eth.getBlock(3)
{
  baseFeePerGas: "0x5d21dba00",
  difficulty: "0x1",
  extraData: "0x",
  gasLimit: "0xe8d4a50fff",
  gasUsed: 0,
  hash: "0x4785bcbd17387fb0d5e339f685e3077cc7b9cbee798a7fe24c8e7c8719d59a1d",
  logsBloom: "0x00000000000000000000000000000000000000000000000000000000000000000000000000000000000000000000000000000000000000000000000000000000000000000000000000000000000000000000000000000000000000000000000000000000000000000000000000000000000000000000000000000000000000000000000000000000000000000000000000000000000000000000000000000000000000000000000000000000000000000000000000000000000000000000000000000000000000000000000000000000000000000000000000000000000000000000000000000000000000000000000000000000000000000000000000000000",
  miner: "0x7a3c8dd6e7c1314315f064de39b49bd342936e08",
  mixHash: "0xad7210c005adf3cdee6872c7fc1ed071a75e249204617dd99396e66f6677d0df",
  nonce: "0x0000000000000000",
  number: 3,
  parentHash: "0x7e39bf79cbbb591b833ebc8ab1efa81c3fa09ff5697236ab9f7f40d63068a4c3",
  randomReveal: "0x9224c26a39f776211e83585cf72e4d4d57c4bb939b4354ed7dd6827a7034fe33ee394dd2ab6c334f0a29a7f72293c4e705629c69581dae543a47ec2bd394acc6e553a96c44e82df0dddd16bfa17b3dc5e34859e59bd1e2ab1d7f27937cffd718",
  receiptsRoot: "0x56e81f171bcc55a6ff8345e692c0f86e5b48e01b996cadc001622fb5e363b421",
  sha3Uncles: "0x1dcc4de8dec75d7aab85b567b6ccd41ad312451b948a7413f0a142fd40d49347",
  size: 761,
  stateRoot: "0x6b43b28fcfc887a41930788a59b5bc290fbe92644666939b02ebd0abf6628ab7",
  timestamp: 1711271195,
  timestampFoS: 0,
  totalDifficulty: "0x4",
  transactions: [],
  transactionsRoot: "0x56e81f171bcc55a6ff8345e692c0f86e5b48e01b996cadc001622fb5e363b421",
  uncles: []
}
> eth.getBlock(4)
{
  baseFeePerGas: "0x5d21dba00",
  difficulty: "0x1",
  extraData: "0x",
  gasLimit: "0xe8d4a50fff",
  gasUsed: 0,
  hash: "0x889f5fe43d70d40553d66d3e24ae49ce31b91fe93fa5671bc83e8f2bcb554424",
  logsBloom: "0x00000000000000000000000000000000000000000000000000000000000000000000000000000000000000000000000000000000000000000000000000000000000000000000000000000000000000000000000000000000000000000000000000000000000000000000000000000000000000000000000000000000000000000000000000000000000000000000000000000000000000000000000000000000000000000000000000000000000000000000000000000000000000000000000000000000000000000000000000000000000000000000000000000000000000000000000000000000000000000000000000000000000000000000000000000000",
  miner: "0x7a3c8dd6e7c1314315f064de39b49bd342936e08",
  mixHash: "0xde3577a5f2927665588ff8f75283a6149036b63471075722035f807b5779cc01",
  nonce: "0x0000000000000000",
  number: 4,
  parentHash: "0x4785bcbd17387fb0d5e339f685e3077cc7b9cbee798a7fe24c8e7c8719d59a1d",
  randomReveal: "0x8343b5d0781e7ee2e64fea30debf23466c94f4784ca77e6dcbb9722999ea63d2b990146abd59b847095322603587e9b40ee439d4992b8d6e8413b185c596efbde86db2d15f155134876f6c5d3f0d5fe1540c1b3f21fcdbe3180a4c4b3f74ad7f",
  receiptsRoot: "0x56e81f171bcc55a6ff8345e692c0f86e5b48e01b996cadc001622fb5e363b421",
  sha3Uncles: "0x1dcc4de8dec75d7aab85b567b6ccd41ad312451b948a7413f0a142fd40d49347",
  size: 761,
  stateRoot: "0x6b43b28fcfc887a41930788a59b5bc290fbe92644666939b02ebd0abf6628ab7",
  timestamp: 1711271196,
  timestampFoS: 0,
  totalDifficulty: "0x5",
  transactions: [],
  transactionsRoot: "0x56e81f171bcc55a6ff8345e692c0f86e5b48e01b996cadc001622fb5e363b421",
  uncles: []
}
```

# Log

```shell
INFO[03/24,17:37:21 +09] [5] InitDeriveSha                             initial=0 withGov=false
INFO[03/24,17:37:21 +09] [5] Writing custom genesis block             
INFO[03/24,17:37:21 +09] [5] InitDeriveSha                             initial=0 withGov=false
INFO[03/24,17:37:21 +09] [49] Persisted trie from memory database       blockNum=0 updated nodes=30 updated nodes size=3.25kB time=276.375µs gcnodes=0 gcsize=0.00B gctime=0s livenodes=1 livesize=0.00B preimages=21 pruningMarks=0
INFO[03/24,17:37:21 +09] [19] Successfully wrote genesis state          database=chaindata hash=0x88d625e3668c8d2750813459ab13fa55fe2691e6bbf05f5ada0e5c093004c5a0
```

# 0_genesis_setup Extract

### Genesis.go 

```go
func (g *Genesis) Commit(baseStateRoot common.Hash, db database.DBManager) (*types.Block, error) {
	block := g.ToBlock(baseStateRoot, db)
	if block.Number().Sign() != 0 {
		return nil, fmt.Errorf("can't commit genesis block with number > 0")
	}
	db.WriteTd(block.Hash(), block.NumberU64(), g.BlockScore)
	db.WriteBlock(block)
	db.WriteReceipts(block.Hash(), block.NumberU64(), nil)
	db.WriteCanonicalHash(block.Hash(), block.NumberU64())
	db.WriteHeadBlockHash(block.Hash())
	db.WriteHeadHeaderHash(block.Hash())

	config := g.Config
	if config == nil {
		config = params.AllGxhashProtocolChanges
	}
	if err := config.CheckConfigForkOrder(); err != nil {
		return nil, err
	}
	db.WriteChainConfig(block.Hash(), config)
	return block, nil
}
```
> Genesis Setup 로직

## DB Entry: body

```go
[62000000000000000088d625e3668c8d2750813459ab13fa55fe2691e6bbf05f5ada0e5c093004c5a0, c1c0]

Commit()
- db.WriteBlock(block)
  - dbm.WriteBody(block.Hash(), block.NumberU64(), block.Body())
    - common.Bytes2Hex(blockBodyKey(blockNum, common.HexToHash(genesisBlockHash))) // key: 62000000000000000088d625e3668c8d2750813459ab13fa55fe2691e6bbf05f5ada0e5c093004c5a0
    - rlp.EncodeToBytes(types.Body{Transactions: []*types.Transaction{}}) //  value: c1c0
```

## DB Entry: header

```go
[4888d625e3668c8d2750813459ab13fa55fe2691e6bbf05f5ada0e5c093004c5a0, 0000000000000000]

Commit()
- db.WriteBlock(block)
  - dbm.WriteHeader(block.Header())
    - db.Put(headerNumberKey(header.hash), common.Int64ToByteBigEndian(header.Number.Uint64()))  // key: 4888d625e3668c8d2750813459ab13fa55fe2691e6bbf05f5ada0e5c093004c5a0
```

```go
[4c617374426c6f636b, 88d625e3668c8d2750813459ab13fa55fe2691e6bbf05f5ada0e5c093004c5a0]

Commit()
- db.WriteHeadBlockHash(block.Hash())
  - db.Put(headBlockKey, hash.Bytes()); // key: headBlockKey(prefix), value: genesisBlockHash
```

```go
[4c617374486561646572, 88d625e3668c8d2750813459ab13fa55fe2691e6bbf05f5ada0e5c093004c5a0]

Commit()
- db.WriteHeadHeaderHash(block.Hash())
  - db.Put(headHeaderKey, hash.Bytes()) // key: headHeaderKey(prefix), value: genesisBlockHash
```


```go
[6800000000000000006e, 88d625e3668c8d2750813459ab13fa55fe2691e6bbf05f5ada0e5c093004c5a0]

Commit()
- db.WriteCanonicalHash(block.Hash(), block.NumberU64())
  - common.Bytes2Hex(headerHashKey(genesisBlockNum)) // key: 6800000000000000006e, value: genesisBlockHash
```

```go
[68000000000000000088d625e3668c8d2750813459ab13fa55fe2691e6bbf05f5ada0e5c093004c5a0, f90474a00000000000000000000000000000000000000000000000000000000000000000940000000000000000000000000000000000000000a06b43b28fcfc887a41930788a59b5bc290fbe92644666939b02ebd0abf6628ab7a056e81f171bcc55a6ff8345e692c0f86e5b48e01b996cadc001622fb5e363b421a056e81f171bcc55a6ff8345e692c0f86e5b48e01b996cadc001622fb5e363b421b90100000000000000000000000000000000000000000000000000000000000000000000000000000000000000000000000000000000000000000000000000000000000000000000000000000000000000000000000000000000000000000000000000000000000000000000000000000000000000000000000000000000000000000000000000000000000000000000000000000000000000000000000000000000000000000000000000000000000000000000000000000000000000000000000000000000000000000000000000000000000000000000000000000000000000000000000000000000000000000000000000000000000000000000000000000000000180808465ffb2b480b87c0000000000000000000000000000000000000000000000000000000000000000f85ad5947a3c8dd6e7c1314315f064de39b49bd342936e08b8410000000000000000000000000000000000000000000000000000000000000000000000000000000000000000000000000000000000000000000000000000000000c0b901c4b901c17b22676f7665726e616e63652e646572697665736861696d706c223a302c22676f7665726e616e63652e676f7665726e616e63656d6f6465223a226e6f6e65222c22676f7665726e616e63652e676f7665726e696e676e6f6465223a22307830303030303030303030303030303030303030303030303030303030303030303030303030303030222c22676f7665726e616e63652e756e69747072696365223a302c22697374616e62756c2e636f6d6d697474656573697a65223a32312c22697374616e62756c2e65706f6368223a3630343830302c22697374616e62756c2e706f6c696379223a302c227265776172642e64656665727265647478666565223a66616c73652c227265776172642e6d696e696d756d7374616b65223a2232303030303030222c227265776172642e6d696e74696e67616d6f756e74223a2230222c227265776172642e70726f706f736572757064617465696e74657276616c223a333630302c227265776172642e726174696f223a223130302f302f30222c227265776172642e7374616b696e67757064617465696e74657276616c223a38363430302c227265776172642e75736567696e69636f656666223a66616c73657d808505d21dba00b860000000000000000000000000000000000000000000000000000000000000000000000000000000000000000000000000000000000000000000000000000000000000000000000000000000000000000000000000000000000000000000000000a00000000000000000000000000000000000000000000000000000000000000000]

Commit()
- db.WriteBlock(block)
  - dbm.WriteHeader(block.Header())
    - db.Put(headerKey(number, hash), rlp.EncodeToBytes(header)) // key: 68000000000000000088d625e3668c8d2750813459ab13fa55fe2691e6bbf05f5ada0e5c093004c5a0
```

## DB Entry: Misc

```go
[676f7665726e616e63650000000000000000, 7b22676f7665726e616e63652e646572697665736861696d706c223a302c22676f7665726e616e63652e676f7665726e616e63656d6f6465223a226e6f6e65222c22676f7665726e616e63652e676f7665726e696e676e6f6465223a22307830303030303030303030303030303030303030303030303030303030303030303030303030303030222c22676f7665726e616e63652e756e69747072696365223a302c22697374616e62756c2e636f6d6d697474656573697a65223a32312c22697374616e62756c2e65706f6368223a3630343830302c22697374616e62756c2e706f6c696379223a302c227265776172642e64656665727265647478666565223a66616c73652c227265776172642e6d696e696d756d7374616b65223a2232303030303030222c227265776172642e6d696e74696e67616d6f756e74223a2230222c227265776172642e70726f706f736572757064617465696e74657276616c223a333630302c227265776172642e726174696f223a223130302f302f30222c227265776172642e7374616b696e67757064617465696e74657276616c223a38363430302c227265776172642e75736567696e69636f656666223a66616c73657d]

// key: governancePrefix(676f7665726e616e6365) + 0000000000000000
```

```go
[676f7665726e616e6365496478486973746f7279, 5b305d]

// key: governanceHistoryKey(prefix)
```

```go
[68000000000000000088d625e3668c8d2750813459ab13fa55fe2691e6bbf05f5ada0e5c093004c5a074, 01]

Commit()
- db.WriteTd(block.Hash(), block.NumberU64(), g.BlockScore)
  - common.Bytes2Hex(headerTDKey(genesisBlockNum, genesisBlockHash)) // key: 68000000000000000088d625e3668c8d2750813459ab13fa55fe2691e6bbf05f5ada0e5c093004c5a074
```



```go
[6b6c61792d636f6e6669672d88d625e3668c8d2750813459ab13fa55fe2691e6bbf05f5ada0e5c093004c5a0, 7b22636861696e4964223a313030302c22697374616e62756c436f6d70617469626c65426c6f636b223a302c226c6f6e646f6e436f6d70617469626c65426c6f636b223a302c22657468547854797065436f6d70617469626c65426c6f636b223a302c226d61676d61436f6d70617469626c65426c6f636b223a302c226b6f7265436f6d70617469626c65426c6f636b223a302c227368616e67686169436f6d70617469626c65426c6f636b223a302c2263616e63756e436f6d70617469626c65426c6f636b223a302c22647261676f6e436f6d70617469626c65426c6f636b223a302c226b6970313033436f6d70617469626c65426c6f636b223a302c226b6970313033436f6e747261637441646472657373223a22307830303030303030303030303030303030303030303030303030303030303030303030303030303030222c2272616e64616f436f6d70617469626c65426c6f636b223a302c2272616e64616f5265676973747279223a7b227265636f726473223a7b224b4950313133223a22307830303030303030303030303030303030303030303030303030303030303030303030303030343032227d2c226f776e6572223a22307837613363386464366537633133313433313566303634646533396234396264333432393336653038227d2c22697374616e62756c223a7b2265706f6368223a3630343830302c22706f6c696379223a302c22737562223a32317d2c22756e69745072696365223a302c22646572697665536861496d706c223a302c22676f7665726e616e6365223a7b22676f7665726e696e674e6f6465223a22307830303030303030303030303030303030303030303030303030303030303030303030303030303030222c22676f7665726e616e63654d6f6465223a226e6f6e65222c22676f76506172616d436f6e7472616374223a22307830303030303030303030303030303030303030303030303030303030303030303030303030303030222c22726577617264223a7b226d696e74696e67416d6f756e74223a302c22726174696f223a223130302f302f30222c2275736547696e69436f656666223a66616c73652c2264656665727265645478466565223a66616c73652c227374616b696e67557064617465496e74657276616c223a38363430302c2270726f706f736572557064617465496e74657276616c223a333630302c226d696e696d756d5374616b65223a323030303030307d7d7d]

Commit()

db.WriteChainConfig(block.Hash(), config)
- db.Put(configKey(hash), data); // key: 6b6c61792d636f6e6669672d88d625e3668c8d2750813459ab13fa55fe2691e6bbf05f5ada0e5c093004c5a0
```

## DB Entry: Receipts

```go
[72000000000000000088d625e3668c8d2750813459ab13fa55fe2691e6bbf05f5ada0e5c093004c5a0, c0]


Commit
- db.WriteReceipts(block.Hash(), block.NumberU64(), nil)
  - common.Bytes2Hex(blockReceiptsKey(genesisBlockNum, genesisBlockHash)) // key: 72000000000000000088d625e3668c8d2750813459ab13fa55fe2691e6bbf05f5ada0e5c093004c5a0
```


## DB Entry: Storage 

```shell
INFO[03/24,17:37:21 +09] [49] Persisted trie from memory database       blockNum=0 updated nodes=30 updated nodes size=3.25kB time=276.375µs gcnodes=0 gcsize=0.00B gctime=0s livenodes=1 livesize=0.00B preimages=21 pruningMarks=0
```

```go
Commit() 
- block := g.ToBlock(baseStateRoot, db)
  - stateDB.Commit(false)
  -	stateDB.Database().TrieDB().Commit(root, true, g.Number)
```


```go
func (g *Genesis) ToBlock(baseStateRoot common.Hash, db database.DBManager) *types.Block {
	if db == nil {
		db = database.NewMemoryDBManager()
	}
	stateDB, _ := state.New(baseStateRoot, state.NewDatabase(db), nil, nil)

  // Iterage genesis.json -> alloc
	for addr, account := range g.Alloc {
		if len(account.Code) != 0 {
			originalCode := stateDB.GetCode(addr)
			stateDB.SetCode(addr, account.Code)
			// If originalCode is not nil,
			// just update the code and don't change the other states
			if originalCode != nil {
				logger.Warn("this address already has a not nil code, now the code of this address has been changed", "addr", addr.String())
				continue
			}
		}
		for key, value := range account.Storage {
			stateDB.SetState(addr, key, value)
		}
		stateDB.AddBalance(addr, account.Balance)
		stateDB.SetNonce(addr, account.Nonce)
	}
	root := stateDB.IntermediateRoot(false)
	head := &types.Header{
		Number:     new(big.Int).SetUint64(g.Number),
		Time:       new(big.Int).SetUint64(g.Timestamp),
		TimeFoS:    0,
		ParentHash: g.ParentHash,
		Extra:      g.ExtraData,
		Governance: g.Governance,
		GasUsed:    g.GasUsed,
		BlockScore: g.BlockScore,
		Root:       root,
	}
	if g.BlockScore == nil {
		head.BlockScore = params.GenesisBlockScore
	}
	if g.Config != nil && g.Config.IsMagmaForkEnabled(common.Big0) {
		if g.Config.Governance != nil && g.Config.Governance.KIP71 != nil {
			head.BaseFee = new(big.Int).SetUint64(g.Config.Governance.KIP71.LowerBoundBaseFee)
		} else {
			head.BaseFee = new(big.Int).SetUint64(params.DefaultLowerBoundBaseFee)
		}
	}
	if g.Config != nil && g.Config.IsRandaoForkEnabled(common.Big0) {
		head.RandomReveal = params.ZeroRandomReveal
		head.MixHash = params.ZeroMixHash
	}

	stateDB.Commit(false)
	stateDB.Database().TrieDB().Commit(root, true, g.Number)

	return types.NewBlock(head, nil, nil)
}
```

```go
[01f9e62d19297f681ea2208de1fec6c67ed86a26e55dbf4b27a1b0881060507b, e5a120290decd9548b62a8d60345a988386fc84ba6bc95484008f6362f93160ef3e5638281ff]
[040feeaf8caf263d77accc2bc8ccee81d150098b6846c3a5f2f949168345781d, f843a020d9d894133a730aa651ef62d26b0ffa846233c74177a591a4a896adfda97d22a1a04b4950313133000000000000000000000000000000000000000000000000000c]
[071f85ca03c1c7f09776810ec2148aff140355cbfc8cfd6fbeeceadb8e48a3fe, f7a0204a83ed9988f79f6038d4c7a7dadbad8af32f4ad6df893e0e5807a1b1944ff995947a3c8dd6e7c1314315f064de39b49bd342936e08]
[0a93503b53e69f4fa388b3d42749bcd18a7d1460fadb3f7ea2480927526323ab, f843a020db2aded3651635d1d88ecb71ab1b518f9d15120ba8cfd2232eb5f0ae84abbba1a0b91e874e4efe60bb3db207269d32ee2762cdd7a97546d772b532aeb93f463e28]
[105b9008aa4623406ad53566d83eb97fbbb479d1910d02fecaccd0b91ce3109a, e2a03ab1182c4874c1ecd356f5e4087f309a4ac5c22485d9bd3fce2baabe7aadec6601]
[17fe77cb06927c3582a74a77cb3672f31e7280a3b321b42a1a2ecc44c281ac1e, f843a0205ae7fb7f8ed54122c0125ebd99e8e681362dd0b391f7f370d8e99667241213a1a0f9a4984184cbc024db9d3ab2427591d218bf2a0d1a72c78a5cb455a3de4533c0]
[21d6d93cfaa9b7ced3d410d4fb224f2ab2fe67f8731575ff75e761ec6cd05661, e4a020b90fb2d407c5af0976df53c68a49f4d2356d338cf7301ba2f8a176644899d98281c1]
[336a54337a0e85d22325ac700a1d569bf9fe47da488d6644542f0e6e9d86e7e4, f86fa031bde8b6ac3885dcb915cc925cb7c77982d93f02e8ee4a06f0a7cee3ad15c06db84c02f849c580808003c0a0926f296a4224f46971b4b69450a9e59c78c78aa67a37877c9aaf093e836531b8a0b2e93dcf55621d970e6e35b593f19dccc78b4dd2d2cc02674933bfbfed404a3a80]
[3e74e3bb2824fae467e1354419c094bf3045f851e8d984fd4b193946462d1f81, f7a02038389e4c02cdfbb8a265979b7de2b09d2bdc3fbaac91cb8bb8b9054ac3fb8095947a3c8dd6e7c1314315f064de39b49bd342936e08]
[42dc17f06e6885c334ec19e3b7a541d64986011ff88af4f08dc4eb698c678139, f8718080808080a0e0d2d196fa8c180a78e689d08a32a1b940b0e715d212acad07498b17a06092f4808080a0b6012ab0650b421c13330a074cf5747239ce1c63e59724b133628fedd4226fe9808080a07e3b891116311f5b99c3e0a197fcced9415e32eee4176b2425c2a28a242dc4fd808080]
[4d0c15612e60ae90c040ff5eef0f99778a6f3dfdbdfacf954295252cef782a10, e2a0200decd9548b62a8d60345a988386fc84ba6bc95484008f6362f93160ef3e56301]
[541c563a60aa3949b9b167c2a449b3a73b6ec0e2460f319fcb2a2c0bd35b8b4f, e2a020553b91fb77deb14311759888cf2e121a321f02939dfc3a8affd3cc47a57dba61]

func (dbm *databaseManager) PutTrieNodeToBatch(batch Batch, hash common.ExtHash, node []byte)
- batch.Put(TrieNodeKey(hash), node)
```



```go
[634f42dab8a9780b4183fe9da43bb30a7b780ea64dc5270b9cf01b155ed7b0fa31, ${code-for-alloc-0000000000000000000000000000000000000403}]
[63b2e93dcf55621d970e6e35b593f19dccc78b4dd2d2cc02674933bfbfed404a3a, ${code-for-alloc-0000000000000000000000000000000000000402}]
[63fd3c2152828579b98068570231554ed4bacf528f50ff1bf9fce6300ec023f720, ${code-for-alloc-0000000000000000000000000000000000000401}]

// hash = codeHash
func (dbm *databaseManager) WriteCode(hash common.Hash, code []byte)
- db.Put(CodeKey(hash), code)
```

```go
[68fa76cf1091ee1ea7c9819c4033c259fb5261d78473e557ca1fd79ccd4f32c2, f85180808080a0541c563a60aa3949b9b167c2a449b3a73b6ec0e2460f319fcb2a2c0bd35b8b4f80808080808080a00a93503b53e69f4fa388b3d42749bcd18a7d1460fadb3f7ea2480927526323ab80808080]
[6b43b28fcfc887a41930788a59b5bc290fbe92644666939b02ebd0abf6628ab7, f89180a0336a54337a0e85d22325ac700a1d569bf9fe47da488d6644542f0e6e9d86e7e480808080a097fac60ef017377a7c40b138b0499e1ba5ff884e03c6a4d9525f3159bc7deb5ca0ca6c5e2995a3f574d2da3ed51c7d8eb0ba5b6a41647ee381be391977f422ba258080a08f548d263d2e27a652027ca53097b2ec0c54491ef10d79c0dc5c2105fdeb9129808080808080]

func (dbm *databaseManager) PutTrieNodeToBatch(batch Batch, hash common.ExtHash, node []byte)
- batch.Put(TrieNodeKey(hash), node)
```


```go
[7365637572652d6b65792d11bde8b6ac3885dcb915cc925cb7c77982d93f02e8ee4a06f0a7cee3ad15c06d, 0000000000000000000000000000000000000402]
[7365637572652d6b65792d290decd9548b62a8d60345a988386fc84ba6bc95484008f6362f93160ef3e563, 0000000000000000000000000000000000000000000000000000000000000000]
[7365637572652d6b65792d2e38389e4c02cdfbb8a265979b7de2b09d2bdc3fbaac91cb8bb8b9054ac3fb80, 66be4f155c5ef2ebd3772b228f2f00681e4ed5826cdb3b1943cc11ad15ad1d28]
[7365637572652d6b65792d354a83ed9988f79f6038d4c7a7dadbad8af32f4ad6df893e0e5807a1b1944ff9, 0000000000000000000000000000000000000000000000000000000000000097]
[7365637572652d6b65792d365ae7fb7f8ed54122c0125ebd99e8e681362dd0b391f7f370d8e99667241213, 3ab90fb2d407c5af0976df53c68a49f4d2356d338cf7301ba2f8a176644899da]
[7365637572652d6b65792d3ab90fb2d407c5af0976df53c68a49f4d2356d338cf7301ba2f8a176644899d9, 02ca3055abef53fbe0bded4d32b4a7751558a1015ad894c3b42643204d17cbf9]
[7365637572652d6b65792d405787fa12a823e0f2b7631cc41b3ba8828b3321ca811111fa75cd3aa3bb5ace, 0000000000000000000000000000000000000000000000000000000000000002]
[7365637572652d6b65792d54553b91fb77deb14311759888cf2e121a321f02939dfc3a8affd3cc47a57dba, 02ca3055abef53fbe0bded4d32b4a7751558a1015ad894c3b42643204d17cbf8]
[7365637572652d6b65792d5cdb2aded3651635d1d88ecb71ab1b518f9d15120ba8cfd2232eb5f0ae84abbb, 54553b91fb77deb14311759888cf2e121a321f02939dfc3a8affd3cc47a57dba]
[7365637572652d6b65792d66be4f155c5ef2ebd3772b228f2f00681e4ed5826cdb3b1943cc11ad15ad1d28, 00000000000000000000000000000000000000000000000000000000000000c9]
[7365637572652d6b65792d6fd0358a4ac2223171f4fd0bb90aae18bb42252e73b8c797ad80268946f8e5f5, 0000000000000000000000000000000000000403]
[7365637572652d6b65792d716448df2412de7fcd4085f7efcb0572ae7f5569b611c613906dd447ec696f56, 0000000000000000000000000000000000000401]
[7365637572652d6b65792d75b20eef8615de99c108b05f0dbda081c91897128caa336d75dffb97c4132b4d, 360894a13ba1a3210667c828492db98dca3e2076cc3735a920a3ca505d382bbc]
[7365637572652d6b65792d79cd0576132bc5de9abfa24a6b28c344c0c36ded3c3ae3c37f8bf98e2363b6a2, 3ab90fb2d407c5af0976df53c68a49f4d2356d338cf7301ba2f8a176644899db]
[7365637572652d6b65792d7d404f69423f4a31e86617672e8442d446566a0d144857ece2853a5b6b5c1625, 3ab90fb2d407c5af0976df53c68a49f4d2356d338cf7301ba2f8a176644899d9]
[7365637572652d6b65792d8aba135b8c3fead4fbf19c959151192a4e7e3516419ec4440f08c3ac2b7a4be9, 54553b91fb77deb14311759888cf2e121a321f02939dfc3a8affd3cc47a57dbb]
[7365637572652d6b65792da41d5207df7445bb97ba0a5484218c587d7674580a1abf2a34b78002cff66564, 7a3c8dd6e7c1314315f064de39b49bd342936e08]
[7365637572652d6b65792daab1182c4874c1ecd356f5e4087f309a4ac5c22485d9bd3fce2baabe7aadec66, f2f3ae92776dc343f809e7e22edb01e62de8c84730d97cc9689b51cabb0a5e5d]
[7365637572652d6b65792db10e2d527612073b26eecdfd717e6a320cf44b4afac2b0732d9fcbe2b7fa0cf6, 0000000000000000000000000000000000000000000000000000000000000001]
[7365637572652d6b65792db5d9d894133a730aa651ef62d26b0ffa846233c74177a591a4a896adfda97d22, b10e2d527612073b26eecdfd717e6a320cf44b4afac2b0732d9fcbe2b7fa0cf6]
[7365637572652d6b65792df59077828b3b8a795609b6b9fcb3428c71ad366c3fecd0ccfa119fa9104bec91, aab1182c4874c1ecd356f5e4087f309a4ac5c22485d9bd3fce2baabe7aadec66]

func (dbm *databaseManager) WritePreimages(number uint64, preimages map[common.Hash][]byte)
- batch.Put(preimageKey(hash), preimage)
```

```go
[7e3b891116311f5b99c3e0a197fcced9415e32eee4176b2425c2a28a242dc4fd, f843a020404f69423f4a31e86617672e8442d446566a0d144857ece2853a5b6b5c1625a1a083e3a58e099bf5ac36bfc08d8af8dd5fb1b35be2550388ba4f8bb75e57d4945b]
[80d7e71ff6f1ffbd84b84440dae6cf7fa908379b1eeda7934465cb3a2421dbe7, f7a0305787fa12a823e0f2b7631cc41b3ba8828b3321ca811111fa75cd3aa3bb5ace95947a3c8dd6e7c1314315f064de39b49bd342936e08]
[8f548d263d2e27a652027ca53097b2ec0c54491ef10d79c0dc5c2105fdeb9129, f83ea0341d5207df7445bb97ba0a5484218c587d7674580a1abf2a34b78002cff665649c01da8095446c3b15f9926687d2c40534fdb5640000000000008001c0]
[926f296a4224f46971b4b69450a9e59c78c78aa67a37877c9aaf093e836531b8, f8d18080a0de73cd7798a254d0dac229b22b3f3e6c9e0ef38e6fd74b519c4c7906b25ae1f6a0d274f20307009e23d8f467bc411a2f4db256f933d99dd9b7e5ea55565195d40580a068fa76cf1091ee1ea7c9819c4033c259fb5261d78473e557ca1fd79ccd4f32c2a0e932eaddd1aee2a5799c39daa6523a5bf33100216a2bc3cf29008f3e1d939300a042dc17f06e6885c334ec19e3b7a541d64986011ff88af4f08dc4eb698c678139a0cb229194781e6e3779bcf52ad72e30d6c689b7f7c57f41ccbce7d6219806689b8080808080808080]
[96455ee1d857c707946176fa5a0637d94a029274cc114caa338517ed6e5ee05e, e2a0200e2d527612073b26eecdfd717e6a320cf44b4afac2b0732d9fcbe2b7fa0cf601]
[97fac60ef017377a7c40b138b0499e1ba5ff884e03c6a4d9525f3159bc7deb5c, f86fa03fd0358a4ac2223171f4fd0bb90aae18bb42252e73b8c797ad80268946f8e5f5b84c02f849c580808003c0a001f9e62d19297f681ea2208de1fec6c67ed86a26e55dbf4b27a1b0881060507ba04f42dab8a9780b4183fe9da43bb30a7b780ea64dc5270b9cf01b155ed7b0fa3180]
[9b7a474161fbdc0fe2aa00b747428387e0c5886fea4506c6d1db4f508325d0ef, f89180808080a080d7e71ff6f1ffbd84b84440dae6cf7fa908379b1eeda7934465cb3a2421dbe78080808080a0105b9008aa4623406ad53566d83eb97fbbb479d1910d02fecaccd0b91ce3109aa0b9f2007272f4e45a0fa50723060a651b013016cc76f8c81695d0333f95e8de3d808080a0b9804da6de1369cacf9e47148e76b20187f2195634d476ae03a9cb595e0bd28080]
[b6012ab0650b421c13330a074cf5747239ce1c63e59724b133628fedd4226fe9, f843a020cd0576132bc5de9abfa24a6b28c344c0c36ded3c3ae3c37f8bf98e2363b6a2a1a0b26e3d98efb85a15349b5c75288f23bac977ca38a8971d4efb316114d399c4fc]
[b9804da6de1369cacf9e47148e76b20187f2195634d476ae03a9cb595e0bd280, e5a0359077828b3b8a795609b6b9fcb3428c71ad366c3fecd0ccfa119fa9104bec9183820402]
[b9f2007272f4e45a0fa50723060a651b013016cc76f8c81695d0333f95e8de3d, f85180a096455ee1d857c707946176fa5a0637d94a029274cc114caa338517ed6e5ee05e808080a0040feeaf8caf263d77accc2bc8ccee81d150098b6846c3a5f2f949168345781d8080808080808080808080]
[ca6c5e2995a3f574d2da3ed51c7d8eb0ba5b6a41647ee381be391977f422ba25, f86fa0316448df2412de7fcd4085f7efcb0572ae7f5569b611c613906dd447ec696f56b84c02f849c580808003c0a09b7a474161fbdc0fe2aa00b747428387e0c5886fea4506c6d1db4f508325d0efa0fd3c2152828579b98068570231554ed4bacf528f50ff1bf9fce6300ec023f72080]
[cb229194781e6e3779bcf52ad72e30d6c689b7f7c57f41ccbce7d6219806689b, f843a03aba135b8c3fead4fbf19c959151192a4e7e3516419ec4440f08c3ac2b7a4be9a1a03907602832b1825ecdb380fc269614e900000000000000000000000000000000]
[d274f20307009e23d8f467bc411a2f4db256f933d99dd9b7e5ea55565195d405, f8718080808080a0071f85ca03c1c7f09776810ec2148aff140355cbfc8cfd6fbeeceadb8e48a3fea017fe77cb06927c3582a74a77cb3672f31e7280a3b321b42a1a2ecc44c281ac1e808080a021d6d93cfaa9b7ced3d410d4fb224f2ab2fe67f8731575ff75e761ec6cd05661808080808080]
[de73cd7798a254d0dac229b22b3f3e6c9e0ef38e6fd74b519c4c7906b25ae1f6, f851808080808080808080a04d0c15612e60ae90c040ff5eef0f99778a6f3dfdbdfacf954295252cef782a1080808080a03e74e3bb2824fae467e1354419c094bf3045f851e8d984fd4b193946462d1f818080]
[e0d2d196fa8c180a78e689d08a32a1b940b0e715d212acad07498b17a06092f4, e5a020b20eef8615de99c108b05f0dbda081c91897128caa336d75dffb97c4132b4d83820403]
[e932eaddd1aee2a5799c39daa6523a5bf33100216a2bc3cf29008f3e1d939300, e2a036be4f155c5ef2ebd3772b228f2f00681e4ed5826cdb3b1943cc11ad15ad1d2801]

func (dbm *databaseManager) PutTrieNodeToBatch(batch Batch, hash common.ExtHash, node []byte) 
- batch.Put(TrieNodeKey(hash), node)
```


# 1_genesis_setup Extract

## DB Entry: body

```diff
[62000000000000000088d625e3668c8d2750813459ab13fa55fe2691e6bbf05f5ada0e5c093004c5a0, c1c0] // alerdy exist
+ [6200000000000000013f89b730b3474c4dfab9f228883c465962f4c5d3882c0365259f0fb743b6bdf2, c1c0] // dbm.WriteBody(block.Hash(), block.NumberU64(), block.Body())
```

## DB Entry: header

```diff
[4888d625e3668c8d2750813459ab13fa55fe2691e6bbf05f5ada0e5c093004c5a0, 0000000000000000] // alerdy exist
+ [483f89b730b3474c4dfab9f228883c465962f4c5d3882c0365259f0fb743b6bdf2, 0000000000000001] // db.Put(headerNumberKey(header.hash), common.Int64ToByteBigEndian(header.Number.Uint64())) 
```



```diff
+ [4c617374426c6f636b, 3f89b730b3474c4dfab9f228883c465962f4c5d3882c0365259f0fb743b6bdf2] // key: headBlockKey(prefix), value: block1Hash
+ [4c61737446617374, 3f89b730b3474c4dfab9f228883c465962f4c5d3882c0365259f0fb743b6bdf2] // key: headFastBlockKey(prefix), value: block1Hash
+ [4c617374486561646572, 3f89b730b3474c4dfab9f228883c465962f4c5d3882c0365259f0fb743b6bdf2] // key: headHeaderKey(prefix), value: block1Hash
[6800000000000000006e, 88d625e3668c8d2750813459ab13fa55fe2691e6bbf05f5ada0e5c093004c5a0] // alerdy exist
```

```diff
[68000000000000000088d625e3668c8d2750813459ab13fa55fe2691e6bbf05f5ada0e5c093004c5a0, f90474a00000000000000000000000000000000000000000000000000000000000000000940000000000000000000000000000000000000000a06b43b28fcfc887a41930788a59b5bc290fbe92644666939b02ebd0abf6628ab7a056e81f171bcc55a6ff8345e692c0f86e5b48e01b996cadc001622fb5e363b421a056e81f171bcc55a6ff8345e692c0f86e5b48e01b996cadc001622fb5e363b421b90100000000000000000000000000000000000000000000000000000000000000000000000000000000000000000000000000000000000000000000000000000000000000000000000000000000000000000000000000000000000000000000000000000000000000000000000000000000000000000000000000000000000000000000000000000000000000000000000000000000000000000000000000000000000000000000000000000000000000000000000000000000000000000000000000000000000000000000000000000000000000000000000000000000000000000000000000000000000000000000000000000000000000000000000000000000000180808465ffb2b480b87c0000000000000000000000000000000000000000000000000000000000000000f85ad5947a3c8dd6e7c1314315f064de39b49bd342936e08b8410000000000000000000000000000000000000000000000000000000000000000000000000000000000000000000000000000000000000000000000000000000000c0b901c4b901c17b22676f7665726e616e63652e646572697665736861696d706c223a302c22676f7665726e616e63652e676f7665726e616e63656d6f6465223a226e6f6e65222c22676f7665726e616e63652e676f7665726e696e676e6f6465223a22307830303030303030303030303030303030303030303030303030303030303030303030303030303030222c22676f7665726e616e63652e756e69747072696365223a302c22697374616e62756c2e636f6d6d697474656573697a65223a32312c22697374616e62756c2e65706f6368223a3630343830302c22697374616e62756c2e706f6c696379223a302c227265776172642e64656665727265647478666565223a66616c73652c227265776172642e6d696e696d756d7374616b65223a2232303030303030222c227265776172642e6d696e74696e67616d6f756e74223a2230222c227265776172642e70726f706f736572757064617465696e74657276616c223a333630302c227265776172642e726174696f223a223130302f302f30222c227265776172642e7374616b696e67757064617465696e74657276616c223a38363430302c227265776172642e75736567696e69636f656666223a66616c73657d808505d21dba00b860000000000000000000000000000000000000000000000000000000000000000000000000000000000000000000000000000000000000000000000000000000000000000000000000000000000000000000000000000000000000000000000000a00000000000000000000000000000000000000000000000000000000000000000]
+ [6800000000000000013f89b730b3474c4dfab9f228883c465962f4c5d3882c0365259f0fb743b6bdf2, f902f2a088d625e3668c8d2750813459ab13fa55fe2691e6bbf05f5ada0e5c093004c5a0947a3c8dd6e7c1314315f064de39b49bd342936e08a06b43b28fcfc887a41930788a59b5bc290fbe92644666939b02ebd0abf6628ab7a056e81f171bcc55a6ff8345e692c0f86e5b48e01b996cadc001622fb5e363b421a056e81f171bcc55a6ff8345e692c0f86e5b48e01b996cadc001622fb5e363b421b90100000000000000000000000000000000000000000000000000000000000000000000000000000000000000000000000000000000000000000000000000000000000000000000000000000000000000000000000000000000000000000000000000000000000000000000000000000000000000000000000000000000000000000000000000000000000000000000000000000000000000000000000000000000000000000000000000000000000000000000000000000000000000000000000000000000000000000000000000000000000000000000000000000000000000000000000000000000000000000000000000000000000000000000000000000000000101808465ffecfd06b8c0d983010c01846b6c617988676f312e32322e308664617277696e000000000000f89ed5947a3c8dd6e7c1314315f064de39b49bd342936e08b84156fa627873bb3e775d921dfcff7d6839e34ef099b799d9a6d1e134a14d91664516e52d87765c0f8ba822644b881e2a2147c23a37e211090375312bd68f1d2f8f01f843b8419665f11364355e3ef7989eaa2d303b40e4e7c1cd366e1ce89064cb577715198d57ab768fc1c5d9e1ee0105ec5fd1a73c8060101088e6196d3cda6ba3449bf8a60180808505d21dba00b860844f685d703077f5d8e046d779a3f051a09bbee663f2fda0c066262fbdfa77192f444b02272551d2fbb64cdd7c0393b70363c1c5bd838854de3ca4c39df053a5767fdc74049e96d4e20f7b5778c25daa0febf6a96c06f99b2692b9e90009bf39a0600ecfccd7ce6a6ce41762c634b2f03699501f3018725174a2da6f0261d0f73e] // dbm.WriteHeader(block.Header()) --> db.Put(headerKey(number, hash), rlp.EncodeToBytes(header))

+ [6800000000000000016e, 3f89b730b3474c4dfab9f228883c465962f4c5d3882c0365259f0fb743b6bdf2] // key: ..., value: Block1Hash
```

## DB Entry: Misc

```diff
+ [446174616261736556657273696f6e, 04] // key: databaseVerisionKey(prefix), value: ...
[676f7665726e616e63650000000000000000, 7b22676f7665726e616e63652e646572697665736861696d706c223a302c22676f7665726e616e63652e676f7665726e616e63656d6f6465223a226e6f6e65222c22676f7665726e616e63652e676f7665726e696e676e6f6465223a22307830303030303030303030303030303030303030303030303030303030303030303030303030303030222c22676f7665726e616e63652e756e69747072696365223a302c22697374616e62756c2e636f6d6d697474656573697a65223a32312c22697374616e62756c2e65706f6368223a3630343830302c22697374616e62756c2e706f6c696379223a302c227265776172642e64656665727265647478666565223a66616c73652c227265776172642e6d696e696d756d7374616b65223a2232303030303030222c227265776172642e6d696e74696e67616d6f756e74223a2230222c227265776172642e70726f706f736572757064617465696e74657276616c223a333630302c227265776172642e726174696f223a223130302f302f30222c227265776172642e7374616b696e67757064617465696e74657276616c223a38363430302c227265776172642e75736567696e69636f656666223a66616c73657d]
[676f7665726e616e6365496478486973746f7279, 5b305d]
[68000000000000000088d625e3668c8d2750813459ab13fa55fe2691e6bbf05f5ada0e5c093004c5a074, 01]
+ [6800000000000000013f89b730b3474c4dfab9f228883c465962f4c5d3882c0365259f0fb743b6bdf274, 02] // db.WriteTd(block.Hash(), block.NumberU64(), g.BlockScore)
[6b6c61792d636f6e6669672d88d625e3668c8d2750813459ab13fa55fe2691e6bbf05f5ada0e5c093004c5a0, 7b22636861696e4964223a313030302c22697374616e62756c436f6d70617469626c65426c6f636b223a302c226c6f6e646f6e436f6d70617469626c65426c6f636b223a302c22657468547854797065436f6d70617469626c65426c6f636b223a302c226d61676d61436f6d70617469626c65426c6f636b223a302c226b6f7265436f6d70617469626c65426c6f636b223a302c227368616e67686169436f6d70617469626c65426c6f636b223a302c2263616e63756e436f6d70617469626c65426c6f636b223a302c22647261676f6e436f6d70617469626c65426c6f636b223a302c226b6970313033436f6d70617469626c65426c6f636b223a302c226b6970313033436f6e747261637441646472657373223a22307830303030303030303030303030303030303030303030303030303030303030303030303030303030222c2272616e64616f436f6d70617469626c65426c6f636b223a302c2272616e64616f5265676973747279223a7b227265636f726473223a7b224b4950313133223a22307830303030303030303030303030303030303030303030303030303030303030303030303030343032227d2c226f776e6572223a22307837613363386464366537633133313433313566303634646533396234396264333432393336653038227d2c22697374616e62756c223a7b2265706f6368223a3630343830302c22706f6c696379223a302c22737562223a32317d2c22756e69745072696365223a302c22646572697665536861496d706c223a302c22676f7665726e616e6365223a7b22676f7665726e696e674e6f6465223a22307830303030303030303030303030303030303030303030303030303030303030303030303030303030222c22676f7665726e616e63654d6f6465223a226e6f6e65222c22676f76506172616d436f6e7472616374223a22307830303030303030303030303030303030303030303030303030303030303030303030303030303030222c22726577617264223a7b226d696e74696e67416d6f756e74223a302c22726174696f223a223130302f302f30222c2275736547696e69436f656666223a66616c73652c2264656665727265645478466565223a66616c73652c227374616b696e67557064617465496e74657276616c223a38363430302c2270726f706f736572557064617465496e74657276616c223a333630302c226d696e696d756d5374616b65223a323030303030307d7d7d]
+ [736e617073686f7488d625e3668c8d2750813459ab13fa55fe2691e6bbf05f5ada0e5c093004c5a0, 7b2265706f6368223a3630343830302c226e756d626572223a302c2268617368223a22307838386436323565333636386338643237353038313334353961623133666135356665323639316536626266303566356164613065356330393330303463356130222c22766f746573223a5b5d2c2274616c6c79223a5b5d2c2276616c696461746f7273223a5b22307837613363386464366537633133313433313566303634646533396234396264333432393336653038225d2c22706f6c696379223a302c2273756267726f757073697a65223a32312c227265776172644164647273223a6e756c6c2c22766f74696e67506f776572223a6e756c6c2c22776569676874223a6e756c6c2c2270726f706f73657273223a6e756c6c2c2270726f706f73657273426c6f636b4e756d223a302c2264656d6f74656456616c696461746f7273223a6e756c6c7d] // key: snapshotKeyPrefix + ..., value: ...
```

## DB Entry: Receipts

```diff
[72000000000000000088d625e3668c8d2750813459ab13fa55fe2691e6bbf05f5ada0e5c093004c5a0, c0]
+ [7200000000000000013f89b730b3474c4dfab9f228883c465962f4c5d3882c0365259f0fb743b6bdf2, c0] // common.Bytes2Hex(blockReceiptsKey(blockNum, blockHash))
```

## DB Entry: Storage 
> No Difference