# [schema.go](https://github.com/klaytn/klaytn/blob/dev/storage/database/schema.go) Prefix

```shell
databaseVerisionKey:  446174616261736556657273696f6e
headHeaderKey:  4c617374486561646572
headBlockKey:  4c617374426c6f636b
headBlockBackupKey:  4c617374426c6f636b4261636b7570
headFastBlockKey:  4c61737446617374
headFastBlockBackupKey:  4c617374466173744261636b7570
fastTrieProgressKey:  5472696553796e63
validSectionKey:  636f756e74
sectionHeadKeyPrefix:  7368656164
snapshotKeyPrefix:  736e617073686f74
snapshotJournalKey:  536e617073686f744a6f75726e616c
SnapshotGeneratorKey:  536e617073686f7447656e657261746f72
snapshotDisabledKey:  536e617073686f7444697361626c6564
snapshotRecoveryKey:  536e617073686f745265636f76657279
snapshotSyncStatusKey:  536e617073686f7453796e63537461747573
snapshotRootKey:  536e617073686f74526f6f74
badBlockKey:  496e76616c6964426c6f636b
headerPrefix:  68
headerTDSuffix:  74
headerHashSuffix:  6e
headerNumberPrefix:  48
blockBodyPrefix:  62
blockReceiptsPrefix:  72
txLookupPrefix:  6c
SnapshotAccountPrefix:  61
SnapshotStoragePrefix:  6f
codePrefix:  63
preimagePrefix:  7365637572652d6b65792d
configPrefix:  6b6c61792d636f6e6669672d
pruningEnabledKey:  5072756e696e67456e61626c6564
pruningMarkPrefix:  5072756e696e672d
pruningMarkValue:  01
lastPrunedBlockNumberKey:  6c6173745072756e6564426c6f636b4e756d626572
BloomBitsIndexPrefix:  6942
bloomBitsPrefix:  42
senderTxHashToTxHashPrefix:  53656e646572547848617368
governancePrefix:  676f7665726e616e6365
governanceHistoryKey:  676f7665726e616e6365496478486973746f7279
governanceStateKey:  676f7665726e616e63655374617465
databaseDirPrefix:  64617461626173654469726563746f7279
stakingInfoPrefix:  7374616b696e67496e666f
```

# RPC Call

```shell
> eth.getBlock(0)
{
  baseFeePerGas: "0x5d21dba00",
  difficulty: "0x1",
  extraData: "0x",
  gasLimit: "0xe8d4a50fff",
  gasUsed: 0,
  hash: "0xf484ef9414585f80efa4918c1d43859073556022a6394da54d4e86b5b485cf4a",
  logsBloom: "0x00000000000000000000000000000000000000000000000000000000000000000000000000000000000000000000000000000000000000000000000000000000000000000000000000000000000000000000000000000000000000000000000000000000000000000000000000000000000000000000000000000000000000000000000000000000000000000000000000000000000000000000000000000000000000000000000000000000000000000000000000000000000000000000000000000000000000000000000000000000000000000000000000000000000000000000000000000000000000000000000000000000000000000000000000000000",
  miner: "0x0000000000000000000000000000000000000000",
  mixHash: "0x0000000000000000000000000000000000000000000000000000000000000000",
  nonce: "0x0000000000000000",
  number: 0,
  parentHash: "0x0000000000000000000000000000000000000000000000000000000000000000",
  randomReveal: "0x000000000000000000000000000000000000000000000000000000000000000000000000000000000000000000000000000000000000000000000000000000000000000000000000000000000000000000000000000000000000000000000000",
  receiptsRoot: "0x56e81f171bcc55a6ff8345e692c0f86e5b48e01b996cadc001622fb5e363b421",
  sha3Uncles: "0x1dcc4de8dec75d7aab85b567b6ccd41ad312451b948a7413f0a142fd40d49347",
  size: 1147,
  stateRoot: "0xe7db9b40c2d12997cfca8f52c22c3e799513d47bce745ae66ac37494c7ca69d2",
  timestamp: 1711888926,
  timestampFoS: 0,
  totalDifficulty: "0x1",
  transactions: [],
  transactionsRoot: "0x56e81f171bcc55a6ff8345e692c0f86e5b48e01b996cadc001622fb5e363b421",
  uncles: []
}
> eth.getBlock(1)
{
  baseFeePerGas: "0x5d21dba00",
  difficulty: "0x1",
  extraData: "0x",
  gasLimit: "0xe8d4a50fff",
  gasUsed: 0,
  hash: "0x8f82d5ac5647dd9696371b3cc558c0c0f9f74b02fdcf8468acfb1c7d096fe8e7",
  logsBloom: "0x00000000000000000000000000000000000000000000000000000000000000000000000000000000000000000000000000000000000000000000000000000000000000000000000000000000000000000000000000000000000000000000000000000000000000000000000000000000000000000000000000000000000000000000000000000000000000000000000000000000000000000000000000000000000000000000000000000000000000000000000000000000000000000000000000000000000000000000000000000000000000000000000000000000000000000000000000000000000000000000000000000000000000000000000000000000",
  miner: "0xb11659c1d3fba6c9191dae770e61faf0ec4e8072",
  mixHash: "0x6f8d94981b430fe90357e87ca1a048c36fc6137f34cda1f895063008705dd05a",
  nonce: "0x0000000000000000",
  number: 1,
  parentHash: "0xf484ef9414585f80efa4918c1d43859073556022a6394da54d4e86b5b485cf4a",
  randomReveal: "0xb1b5ab9b908365e8598fb2067f2dbcc524c2c0423c7f220b1b66a616b40bdd393595b6ebc96e760d37a95354aaabb870041560a102003d4918f028e4bb79aa5d3443b526b8835bd2b7814d3bc958ae24f63b6c58274da2b1a4d231d73fd2a87e",
  receiptsRoot: "0x56e81f171bcc55a6ff8345e692c0f86e5b48e01b996cadc001622fb5e363b421",
  sha3Uncles: "0x1dcc4de8dec75d7aab85b567b6ccd41ad312451b948a7413f0a142fd40d49347",
  size: 761,
  stateRoot: "0xe7db9b40c2d12997cfca8f52c22c3e799513d47bce745ae66ac37494c7ca69d2",
  timestamp: 1711889747,
  timestampFoS: 0,
  totalDifficulty: "0x2",
  transactions: [],
  transactionsRoot: "0x56e81f171bcc55a6ff8345e692c0f86e5b48e01b996cadc001622fb5e363b421",
  uncles: []
}
> eth.getBlock(2)
{
  baseFeePerGas: "0x5d21dba00",
  difficulty: "0x1",
  extraData: "0x",
  gasLimit: "0xe8d4a50fff",
  gasUsed: 21000,
  hash: "0x41d4ea0e80f6c91f8b6c8d26ee6937882c7bf88626d345a7b7864725ae010167",
  logsBloom: "0x00000000000000000000000000000000000000000000000000000000000000000000000000000000000000000000000000000000000000000000000000000000000000000000000000000000000000000000000000000000000000000000000000000000000000000000000000000000000000000000000000000000000000000000000000000000000000000000000000000000000000000000000000000000000000000000000000000000000000000000000000000000000000000000000000000000000000000000000000000000000000000000000000000000000000000000000000000000000000000000000000000000000000000000000000000000",
  miner: "0xb11659c1d3fba6c9191dae770e61faf0ec4e8072",
  mixHash: "0x4addef7500c8cc20cc79490b0f428c328d3b0bfa6def4e20e3ddc52b478df8c5",
  nonce: "0x0000000000000000",
  number: 2,
  parentHash: "0x8f82d5ac5647dd9696371b3cc558c0c0f9f74b02fdcf8468acfb1c7d096fe8e7",
  randomReveal: "0x868197d1d9d6539dcbecc35afae4130c8f928606be94b792aae63180394f9cbe907fbb05bef770c97c6a9c002faa7378102fbc7ce420d03dded3c88fb88c2ccdb8cf44861be7ce92c08bd4b1521029fe9e44ac430c4990637fd5b4d1732e4156",
  receiptsRoot: "0x056b23fbba480696b65fe5a59b8f2148a1299103c4f57df839233af2cf4ca2d2",
  sha3Uncles: "0x1dcc4de8dec75d7aab85b567b6ccd41ad312451b948a7413f0a142fd40d49347",
  size: 876,
  stateRoot: "0x5f33454c77feb4342d275cda4bbe2bbc48390926707243a0fe00d8b9397a85e3",
  timestamp: 1711889894,
  timestampFoS: 0,
  totalDifficulty: "0x3",
  transactions: ["0x95a13a5e23b815e732416e7f94d9958e0d312f1c1da6f893f547540c3b79bf49"],
  transactionsRoot: "0x571ddd2c39d6bb99f4c0057e1cabffb967c0c387c23072d2778a67d2dc4c6daf",
  uncles: []
}
> eth.getBlock(3)
null

> eth.getTransaction("0x95a13a5e23b815e732416e7f94d9958e0d312f1c1da6f893f547540c3b79bf49")
{
  blockHash: "0xe7a047d8ead2e634fd696af5ea2eb7d0cb2e339a17afe7a7d1040f2d12e49e83",
  blockNumber: 2,
  from: "0xe9e0f3cb3c328438a52512d42ce150f773e9a08d",
  gas: 21000,
  gasPrice: 50000000000,
  hash: "0x95a13a5e23b815e732416e7f94d9958e0d312f1c1da6f893f547540c3b79bf49",
  input: "0x",
  nonce: 0,
  r: "0xb50e1b4cb415ad25430a92fbb4fdee0b67b3d461da64a91ef58ece34acd1e299",
  s: "0x118fc25940a88b993665613aaa52b3a67739a498e80362f05449ecdcf455c87b",
  to: "0x8c53ffef58a4e677592354eba1f95b0ea777f968",
  transactionIndex: 0,
  type: "0x0",
  v: "0x7f3",
  value: 100000000000000000
}
```

# 0_genesis_setup Extract

### Genesis.go 

```go
func (g *Genesis) Commit(baseStateRoot common.Hash, db database.DBManager) (*types.Block, error) {
	block := g.ToBlock(baseStateRoot, db)
	if block.Number().Sign() != 0 {
		return nil, fmt.Errorf("can't commit genesis block with number > 0")
	}
	db.WriteTd(block.Hash(), block.NumberU64(), g.BlockScore)
	db.WriteBlock(block)
	db.WriteReceipts(block.Hash(), block.NumberU64(), nil)
	db.WriteCanonicalHash(block.Hash(), block.NumberU64())
	db.WriteHeadBlockHash(block.Hash())
	db.WriteHeadHeaderHash(block.Hash())

	config := g.Config
	if config == nil {
		config = params.AllGxhashProtocolChanges
	}
	if err := config.CheckConfigForkOrder(); err != nil {
		return nil, err
	}
	db.WriteChainConfig(block.Hash(), config)
	return block, nil
}
```
> Genesis Setup 로직

## DB Entry: body

```go
[620000000000000000f484ef9414585f80efa4918c1d43859073556022a6394da54d4e86b5b485cf4a, c1c0]

Commit()
- db.WriteBlock(block)
  - dbm.WriteBody(block.Hash(), block.NumberU64(), block.Body())
    - common.Bytes2Hex(blockBodyKey(blockNum, common.HexToHash(genesisBlockHash)))
    - rlp.EncodeToBytes(types.Body{Transactions: []*types.Transaction{}})
```

## DB Entry: header

```go
[48f484ef9414585f80efa4918c1d43859073556022a6394da54d4e86b5b485cf4a, 0000000000000000]

Commit()
- db.WriteBlock(block)
  - dbm.WriteHeader(block.Header())
    - db.Put(headerNumberKey(header.hash), common.Int64ToByteBigEndian(header.Number.Uint64()))  // key: 48f484ef9414585f80efa4918c1d43859073556022a6394da54d4e86b5b485cf4a
```

```go
[4c617374426c6f636b, f484ef9414585f80efa4918c1d43859073556022a6394da54d4e86b5b485cf4a]

Commit()
- db.WriteHeadBlockHash(block.Hash())
  - db.Put(headBlockKey, hash.Bytes()); // key: headBlockKey(prefix), value: genesisBlockHash
```

```go
[4c617374486561646572, f484ef9414585f80efa4918c1d43859073556022a6394da54d4e86b5b485cf4a]

Commit()
- db.WriteHeadHeaderHash(block.Hash())
  - db.Put(headHeaderKey, hash.Bytes()) // key: headHeaderKey(prefix), value: genesisBlockHash
```


```go
[6800000000000000006e, f484ef9414585f80efa4918c1d43859073556022a6394da54d4e86b5b485cf4a]

Commit()
- db.WriteCanonicalHash(block.Hash(), block.NumberU64())
  - common.Bytes2Hex(headerHashKey(genesisBlockNum)) // key: 6800000000000000006e, value: genesisBlockHash
```

```go
[680000000000000000f484ef9414585f80efa4918c1d43859073556022a6394da54d4e86b5b485cf4a, f90474a00000000000000000000000000000000000000000000000000000000000000000940000000000000000000000000000000000000000a0e7db9b40c2d12997cfca8f52c22c3e799513d47bce745ae66ac37494c7ca69d2a056e81f171bcc55a6ff8345e692c0f86e5b48e01b996cadc001622fb5e363b421a056e81f171bcc55a6ff8345e692c0f86e5b48e01b996cadc001622fb5e363b421b90100000000000000000000000000000000000000000000000000000000000000000000000000000000000000000000000000000000000000000000000000000000000000000000000000000000000000000000000000000000000000000000000000000000000000000000000000000000000000000000000000000000000000000000000000000000000000000000000000000000000000000000000000000000000000000000000000000000000000000000000000000000000000000000000000000000000000000000000000000000000000000000000000000000000000000000000000000000000000000000000000000000000000000000000000000000000180808466095a1e80b87c0000000000000000000000000000000000000000000000000000000000000000f85ad594b11659c1d3fba6c9191dae770e61faf0ec4e8072b8410000000000000000000000000000000000000000000000000000000000000000000000000000000000000000000000000000000000000000000000000000000000c0b901c4b901c17b22676f7665726e616e63652e646572697665736861696d706c223a302c22676f7665726e616e63652e676f7665726e616e63656d6f6465223a226e6f6e65222c22676f7665726e616e63652e676f7665726e696e676e6f6465223a22307830303030303030303030303030303030303030303030303030303030303030303030303030303030222c22676f7665726e616e63652e756e69747072696365223a302c22697374616e62756c2e636f6d6d697474656573697a65223a32312c22697374616e62756c2e65706f6368223a3630343830302c22697374616e62756c2e706f6c696379223a302c227265776172642e64656665727265647478666565223a66616c73652c227265776172642e6d696e696d756d7374616b65223a2232303030303030222c227265776172642e6d696e74696e67616d6f756e74223a2230222c227265776172642e70726f706f736572757064617465696e74657276616c223a333630302c227265776172642e726174696f223a223130302f302f30222c227265776172642e7374616b696e67757064617465696e74657276616c223a38363430302c227265776172642e75736567696e69636f656666223a66616c73657d808505d21dba00b860000000000000000000000000000000000000000000000000000000000000000000000000000000000000000000000000000000000000000000000000000000000000000000000000000000000000000000000000000000000000000000000000a00000000000000000000000000000000000000000000000000000000000000000]

Commit()
- db.WriteBlock(block)
  - dbm.WriteHeader(block.Header())
    - db.Put(headerKey(number, hash), rlp.EncodeToBytes(header)) // key: 680000000000000000f484ef9414585f80efa4918c1d43859073556022a6394da54d4e86b5b485cf4a
```

## DB Entry: Misc

```go
[676f7665726e616e63650000000000000000, 7b22676f7665726e616e63652e646572697665736861696d706c223a302c22676f7665726e616e63652e676f7665726e616e63656d6f6465223a226e6f6e65222c22676f7665726e616e63652e676f7665726e696e676e6f6465223a22307830303030303030303030303030303030303030303030303030303030303030303030303030303030222c22676f7665726e616e63652e756e69747072696365223a302c22697374616e62756c2e636f6d6d697474656573697a65223a32312c22697374616e62756c2e65706f6368223a3630343830302c22697374616e62756c2e706f6c696379223a302c227265776172642e64656665727265647478666565223a66616c73652c227265776172642e6d696e696d756d7374616b65223a2232303030303030222c227265776172642e6d696e74696e67616d6f756e74223a2230222c227265776172642e70726f706f736572757064617465696e74657276616c223a333630302c227265776172642e726174696f223a223130302f302f30222c227265776172642e7374616b696e67757064617465696e74657276616c223a38363430302c227265776172642e75736567696e69636f656666223a66616c73657d]

// key: governancePrefix(676f7665726e616e6365) + 0000000000000000
```

```go
[676f7665726e616e6365496478486973746f7279, 5b305d]

// key: governanceHistoryKey(prefix)
```

```go
[680000000000000000f484ef9414585f80efa4918c1d43859073556022a6394da54d4e86b5b485cf4a74, 01]

Commit()
- db.WriteTd(block.Hash(), block.NumberU64(), g.BlockScore)
  - common.Bytes2Hex(headerTDKey(genesisBlockNum, genesisBlockHash))
```



```go
[6b6c61792d636f6e6669672df484ef9414585f80efa4918c1d43859073556022a6394da54d4e86b5b485cf4a, 7b22636861696e4964223a313030302c22697374616e62756c436f6d70617469626c65426c6f636b223a302c226c6f6e646f6e436f6d70617469626c65426c6f636b223a302c22657468547854797065436f6d70617469626c65426c6f636b223a302c226d61676d61436f6d70617469626c65426c6f636b223a302c226b6f7265436f6d70617469626c65426c6f636b223a302c227368616e67686169436f6d70617469626c65426c6f636b223a302c2263616e63756e436f6d70617469626c65426c6f636b223a302c22647261676f6e436f6d70617469626c65426c6f636b223a302c226b6970313033436f6d70617469626c65426c6f636b223a302c226b6970313033436f6e747261637441646472657373223a22307830303030303030303030303030303030303030303030303030303030303030303030303030303030222c2272616e64616f436f6d70617469626c65426c6f636b223a302c2272616e64616f5265676973747279223a7b227265636f726473223a7b224b4950313133223a22307830303030303030303030303030303030303030303030303030303030303030303030303030343032227d2c226f776e6572223a22307862313136353963316433666261366339313931646165373730653631666166306563346538303732227d2c22697374616e62756c223a7b2265706f6368223a3630343830302c22706f6c696379223a302c22737562223a32317d2c22756e69745072696365223a302c22646572697665536861496d706c223a302c22676f7665726e616e6365223a7b22676f7665726e696e674e6f6465223a22307830303030303030303030303030303030303030303030303030303030303030303030303030303030222c22676f7665726e616e63654d6f6465223a226e6f6e65222c22676f76506172616d436f6e7472616374223a22307830303030303030303030303030303030303030303030303030303030303030303030303030303030222c22726577617264223a7b226d696e74696e67416d6f756e74223a302c22726174696f223a223130302f302f30222c2275736547696e69436f656666223a66616c73652c2264656665727265645478466565223a66616c73652c227374616b696e67557064617465496e74657276616c223a38363430302c2270726f706f736572557064617465496e74657276616c223a333630302c226d696e696d756d5374616b65223a323030303030307d7d7d]

Commit()

db.WriteChainConfig(block.Hash(), config)
- db.Put(configKey(hash), data); // key: 6b6c61792d636f6e6669672df484ef9414585f80efa4918c1d43859073556022a6394da54d4e86b5b485cf4a
```

## DB Entry: Receipts

```go
[720000000000000000f484ef9414585f80efa4918c1d43859073556022a6394da54d4e86b5b485cf4a, c0]


Commit
- db.WriteReceipts(block.Hash(), block.NumberU64(), nil)
  - common.Bytes2Hex(blockReceiptsKey(genesisBlockNum, genesisBlockHash)) // key: 720000000000000000f484ef9414585f80efa4918c1d43859073556022a6394da54d4e86b5b485cf4a
```


## DB Entry: Storage 

```shell
INFO[03/24,17:37:21 +09] [49] Persisted trie from memory database       blockNum=0 updated nodes=30 updated nodes size=3.25kB time=276.375µs gcnodes=0 gcsize=0.00B gctime=0s livenodes=1 livesize=0.00B preimages=21 pruningMarks=0
```

```go
Commit() 
- block := g.ToBlock(baseStateRoot, db)
  - stateDB.Commit(false)
  -	stateDB.Database().TrieDB().Commit(root, true, g.Number)
```


```go
func (g *Genesis) ToBlock(baseStateRoot common.Hash, db database.DBManager) *types.Block {
	if db == nil {
		db = database.NewMemoryDBManager()
	}
	stateDB, _ := state.New(baseStateRoot, state.NewDatabase(db), nil, nil)

  // Iterage genesis.json -> alloc
	for addr, account := range g.Alloc {
		if len(account.Code) != 0 {
			originalCode := stateDB.GetCode(addr)
			stateDB.SetCode(addr, account.Code)
			// If originalCode is not nil,
			// just update the code and don't change the other states
			if originalCode != nil {
				logger.Warn("this address already has a not nil code, now the code of this address has been changed", "addr", addr.String())
				continue
			}
		}
		for key, value := range account.Storage {
			stateDB.SetState(addr, key, value)
		}
		stateDB.AddBalance(addr, account.Balance)
		stateDB.SetNonce(addr, account.Nonce)
	}
	root := stateDB.IntermediateRoot(false)
	head := &types.Header{
		Number:     new(big.Int).SetUint64(g.Number),
		Time:       new(big.Int).SetUint64(g.Timestamp),
		TimeFoS:    0,
		ParentHash: g.ParentHash,
		Extra:      g.ExtraData,
		Governance: g.Governance,
		GasUsed:    g.GasUsed,
		BlockScore: g.BlockScore,
		Root:       root,
	}
	if g.BlockScore == nil {
		head.BlockScore = params.GenesisBlockScore
	}
	if g.Config != nil && g.Config.IsMagmaForkEnabled(common.Big0) {
		if g.Config.Governance != nil && g.Config.Governance.KIP71 != nil {
			head.BaseFee = new(big.Int).SetUint64(g.Config.Governance.KIP71.LowerBoundBaseFee)
		} else {
			head.BaseFee = new(big.Int).SetUint64(params.DefaultLowerBoundBaseFee)
		}
	}
	if g.Config != nil && g.Config.IsRandaoForkEnabled(common.Big0) {
		head.RandomReveal = params.ZeroRandomReveal
		head.MixHash = params.ZeroMixHash
	}

	stateDB.Commit(false)
	stateDB.Database().TrieDB().Commit(root, true, g.Number)

	return types.NewBlock(head, nil, nil)
}
```

```go
[01f9e62d19297f681ea2208de1fec6c67ed86a26e55dbf4b27a1b0881060507b, e5a120290decd9548b62a8d60345a988386fc84ba6bc95484008f6362f93160ef3e5638281ff]
[040feeaf8caf263d77accc2bc8ccee81d150098b6846c3a5f2f949168345781d, f843a020d9d894133a730aa651ef62d26b0ffa846233c74177a591a4a896adfda97d22a1a04b4950313133000000000000000000000000000000000000000000000000000c]
[105b9008aa4623406ad53566d83eb97fbbb479d1910d02fecaccd0b91ce3109a, e2a03ab1182c4874c1ecd356f5e4087f309a4ac5c22485d9bd3fce2baabe7aadec6601]
[182096d5ad9075d07e3d51daac884a3c3e11fccdc4a5e920e76bcd464d441378, f843a03528c2a19e4e6d5e74fa6c95924a1366c0fea53edc0fa8f1bdc8be19782799daa1a088b557a53a0594d435d9388ba55a12ad666d9ba37048f161673c60a90a1971b5]
[2a8b373d554e41962eba296e1bc99b98e32088ec96d593fbc90a1c538a19fc49, f7a0305787fa12a823e0f2b7631cc41b3ba8828b3321ca811111fa75cd3aa3bb5ace9594b11659c1d3fba6c9191dae770e61faf0ec4e8072]
[346788039d53d113b0b9f3915026fe2f5b4791d1c4e874ecc04ceb162aa2f886, f7a0204a83ed9988f79f6038d4c7a7dadbad8af32f4ad6df893e0e5807a1b1944ff99594b11659c1d3fba6c9191dae770e61faf0ec4e8072]
[48e54110dafc254b59a2f49f09ba1745fed657c563686fcd73a08eef28a65e4a, f843a036a498def2bf51345841d19388853b630efe1f39d25480570673c016246028a4a1a0d39a383b30d28e444b8673be48527337003384edcede39b7168231e5cf6234a1]
[4d0c15612e60ae90c040ff5eef0f99778a6f3dfdbdfacf954295252cef782a10, e2a0200decd9548b62a8d60345a988386fc84ba6bc95484008f6362f93160ef3e56301]
[5466a9cb1baf6a022bb7c79e4d2d49f71875626c9a2b19a8000246c4d90447e8, f86fa0316448df2412de7fcd4085f7efcb0572ae7f5569b611c613906dd447ec696f56b84c02f849c580808003c0a0bb5282580a39289823a401ab2ebec2d1c8391381107d55687cf1ab0c37a2d1a3a0fd3c2152828579b98068570231554ed4bacf528f50ff1bf9fce6300ec023f72080]
[5b46348de535eb1621c4bdc760c78885a61248928375e7f7b1c8bf68e93273c8, f8518080808080a0e0d2d196fa8c180a78e689d08a32a1b940b0e715d212acad07498b17a06092f4808080a05ea90e687b2af563d8a4d259d084a9ef444a7c0ceee22d187b3cdfc5939c269f80808080808080]
[5ea90e687b2af563d8a4d259d084a9ef444a7c0ceee22d187b3cdfc5939c269f, f843a0209ded5ed9db5e2c880f55f7b7e7e53809f7706e3af73b718b487ac5dba68466a1a0f05cdc88efd5b70e16fecd58c050bc1d183947ea74c9cb3d722c42fb09540131]

func (dbm *databaseManager) PutTrieNodeToBatch(batch Batch, hash common.ExtHash, node []byte)
- batch.Put(TrieNodeKey(hash), node)
```

```go
[634f42dab8a9780b4183fe9da43bb30a7b780ea64dc5270b9cf01b155ed7b0fa31, ${code-for-alloc-0000000000000000000000000000000000000403}]
[63b2e93dcf55621d970e6e35b593f19dccc78b4dd2d2cc02674933bfbfed404a3a, ${code-for-alloc-0000000000000000000000000000000000000402}]
[63fd3c2152828579b98068570231554ed4bacf528f50ff1bf9fce6300ec023f720, ${code-for-alloc-0000000000000000000000000000000000000401}]

// hash = codeHash
func (dbm *databaseManager) WriteCode(hash common.Hash, code []byte)
- db.Put(CodeKey(hash), code)
```

```go
[7365637572652d6b65792d11bde8b6ac3885dcb915cc925cb7c77982d93f02e8ee4a06f0a7cee3ad15c06d, 0000000000000000000000000000000000000402]
[7365637572652d6b65792d21dc280767db1cc414f78a77e62e8a988bad8e0898ffb182e563f1ea6f262a22, a2b89b110437bf0509c116154e840fd1346788f1211412e9a15d54c6db84459f]
[7365637572652d6b65792d290decd9548b62a8d60345a988386fc84ba6bc95484008f6362f93160ef3e563, 0000000000000000000000000000000000000000000000000000000000000000]
[7365637572652d6b65792d2e38389e4c02cdfbb8a265979b7de2b09d2bdc3fbaac91cb8bb8b9054ac3fb80, 66be4f155c5ef2ebd3772b228f2f00681e4ed5826cdb3b1943cc11ad15ad1d28]
[7365637572652d6b65792d2e5b33e27a71f3ac0bd42b16d1eef796f12a617bed91c4a2cf3ce386b91a6f6c, b11659c1d3fba6c9191dae770e61faf0ec4e8072]
[7365637572652d6b65792d354a83ed9988f79f6038d4c7a7dadbad8af32f4ad6df893e0e5807a1b1944ff9, 0000000000000000000000000000000000000000000000000000000000000097]
[7365637572652d6b65792d3e5b78ff73e6ed6ccbd5a51bf27ebc2df2268740e2e36de7813d9d3b103ba5a3, 21dc280767db1cc414f78a77e62e8a988bad8e0898ffb182e563f1ea6f262a23]
[7365637572652d6b65792d405787fa12a823e0f2b7631cc41b3ba8828b3321ca811111fa75cd3aa3bb5ace, 0000000000000000000000000000000000000000000000000000000000000002]
[7365637572652d6b65792d5e703a7e302b4d8837d1607697c96ae6f01bc6470a28faf73a9d391bf8d40214, a2b89b110437bf0509c116154e840fd1346788f1211412e9a15d54c6db8445a0]
[7365637572652d6b65792d66be4f155c5ef2ebd3772b228f2f00681e4ed5826cdb3b1943cc11ad15ad1d28, 00000000000000000000000000000000000000000000000000000000000000c9]
[7365637572652d6b65792d6fd0358a4ac2223171f4fd0bb90aae18bb42252e73b8c797ad80268946f8e5f5, 0000000000000000000000000000000000000403]
[7365637572652d6b65792d716448df2412de7fcd4085f7efcb0572ae7f5569b611c613906dd447ec696f56, 0000000000000000000000000000000000000401]
[7365637572652d6b65792d75b20eef8615de99c108b05f0dbda081c91897128caa336d75dffb97c4132b4d, 360894a13ba1a3210667c828492db98dca3e2076cc3735a920a3ca505d382bbc]
[7365637572652d6b65792d799ded5ed9db5e2c880f55f7b7e7e53809f7706e3af73b718b487ac5dba68466, 5e703a7e302b4d8837d1607697c96ae6f01bc6470a28faf73a9d391bf8d40216]
[7365637572652d6b65792d9f3b91639cbb77c038e37d8967a68e36d9f3e0bc15b1bac249b2b51a8aa2cc85, e9e0f3cb3c328438a52512d42ce150f773e9a08d]
[7365637572652d6b65792daab1182c4874c1ecd356f5e4087f309a4ac5c22485d9bd3fce2baabe7aadec66, f2f3ae92776dc343f809e7e22edb01e62de8c84730d97cc9689b51cabb0a5e5d]
[7365637572652d6b65792db10e2d527612073b26eecdfd717e6a320cf44b4afac2b0732d9fcbe2b7fa0cf6, 0000000000000000000000000000000000000000000000000000000000000001]
[7365637572652d6b65792db5d9d894133a730aa651ef62d26b0ffa846233c74177a591a4a896adfda97d22, b10e2d527612073b26eecdfd717e6a320cf44b4afac2b0732d9fcbe2b7fa0cf6]
[7365637572652d6b65792db6a498def2bf51345841d19388853b630efe1f39d25480570673c016246028a4, 5e703a7e302b4d8837d1607697c96ae6f01bc6470a28faf73a9d391bf8d40215]
[7365637572652d6b65792dc3ac787ef3e1ea9922eb672d8bf0dbb6fe4c67d8c2dce0c722589e5a36e068b8, 5e703a7e302b4d8837d1607697c96ae6f01bc6470a28faf73a9d391bf8d40214]
[7365637572652d6b65792df528c2a19e4e6d5e74fa6c95924a1366c0fea53edc0fa8f1bdc8be19782799da, 21dc280767db1cc414f78a77e62e8a988bad8e0898ffb182e563f1ea6f262a22]
[7365637572652d6b65792df59077828b3b8a795609b6b9fcb3428c71ad366c3fecd0ccfa119fa9104bec91, aab1182c4874c1ecd356f5e4087f309a4ac5c22485d9bd3fce2baabe7aadec66]

func (dbm *databaseManager) WritePreimages(number uint64, preimages map[common.Hash][]byte)
- batch.Put(preimageKey(hash), preimage)
```

```go
[75ddc159b53b51f5a10690526c03c3799bb17628c49e7e3f24973b334c53fcd9, f843a033ac787ef3e1ea9922eb672d8bf0dbb6fe4c67d8c2dce0c722589e5a36e068b8a1a0879f74977155149282d63b6699909a317a7411a567c48a7aa73f6aee8afab32e]
[84b1f1a93a88bac2017f7660e6cbfa43a2e7e0b1699c4079d98cfaaafc2a7a7c, f8518080808080a0346788039d53d113b0b9f3915026fe2f5b4791d1c4e874ecc04ceb162aa2f8868080808080808080a085b7c9f3dfcbf422cf7390825edfdb6ef334f2268bb9143b7335730b53994a198080]
[85b7c9f3dfcbf422cf7390825edfdb6ef334f2268bb9143b7335730b53994a19, f843a0205b78ff73e6ed6ccbd5a51bf27ebc2df2268740e2e36de7813d9d3b103ba5a3a1a00771d177994fb0ea8f2ca5b53f56c51100000000000000000000000000000000]
[9360b7f00f17085fa7da9ffe187a43465fa075046a1a556a895d888effd7d885, f83ea03f3b91639cbb77c038e37d8967a68e36d9f3e0bc15b1bac249b2b51a8aa2cc859c01da8095446c3b15f9926687d2c40534fdb5640000000000008001c0]
[96455ee1d857c707946176fa5a0637d94a029274cc114caa338517ed6e5ee05e, e2a0200e2d527612073b26eecdfd717e6a320cf44b4afac2b0732d9fcbe2b7fa0cf601]
[96b08b4e3554d673862ac5fb2d7a757a94a1886ecb858e8e94a6c8f3489bfed1, f901118080a0d90626dfd8f4e62190e96dd084b51ad27fa9e5fbbea66d91d35fb8a33dc9bf35a084b1f1a93a88bac2017f7660e6cbfa43a2e7e0b1699c4079d98cfaaafc2a7a7c80a0db3a66e971bde64fdf1b0a1e15e0cd059b4509adbdc2bb465a582d6b93719857a0e932eaddd1aee2a5799c39daa6523a5bf33100216a2bc3cf29008f3e1d939300a05b46348de535eb1621c4bdc760c78885a61248928375e7f7b1c8bf68e93273c8808080a048e54110dafc254b59a2f49f09ba1745fed657c563686fcd73a08eef28a65e4aa075ddc159b53b51f5a10690526c03c3799bb17628c49e7e3f24973b334c53fcd98080a0182096d5ad9075d07e3d51daac884a3c3e11fccdc4a5e920e76bcd464d44137880]
[97fac60ef017377a7c40b138b0499e1ba5ff884e03c6a4d9525f3159bc7deb5c, f86fa03fd0358a4ac2223171f4fd0bb90aae18bb42252e73b8c797ad80268946f8e5f5b84c02f849c580808003c0a001f9e62d19297f681ea2208de1fec6c67ed86a26e55dbf4b27a1b0881060507ba04f42dab8a9780b4183fe9da43bb30a7b780ea64dc5270b9cf01b155ed7b0fa3180]
[b9804da6de1369cacf9e47148e76b20187f2195634d476ae03a9cb595e0bd280, e5a0359077828b3b8a795609b6b9fcb3428c71ad366c3fecd0ccfa119fa9104bec9183820402]
[b9f2007272f4e45a0fa50723060a651b013016cc76f8c81695d0333f95e8de3d, f85180a096455ee1d857c707946176fa5a0637d94a029274cc114caa338517ed6e5ee05e808080a0040feeaf8caf263d77accc2bc8ccee81d150098b6846c3a5f2f949168345781d8080808080808080808080]
[bb5282580a39289823a401ab2ebec2d1c8391381107d55687cf1ab0c37a2d1a3, f89180808080a02a8b373d554e41962eba296e1bc99b98e32088ec96d593fbc90a1c538a19fc498080808080a0105b9008aa4623406ad53566d83eb97fbbb479d1910d02fecaccd0b91ce3109aa0b9f2007272f4e45a0fa50723060a651b013016cc76f8c81695d0333f95e8de3d808080a0b9804da6de1369cacf9e47148e76b20187f2195634d476ae03a9cb595e0bd28080]
[d90626dfd8f4e62190e96dd084b51ad27fa9e5fbbea66d91d35fb8a33dc9bf35, f87180a0ecbb5283cf6d6fe8c4f5915e5a5f189e09a03ee6e2b8ea97825c8e620497403180808080808080a04d0c15612e60ae90c040ff5eef0f99778a6f3dfdbdfacf954295252cef782a1080808080a0f5acfb88f61589f8698392494e7e2b8c8220c90aa44ffd032e51cf7078ffa98d8080]
[db3a66e971bde64fdf1b0a1e15e0cd059b4509adbdc2bb465a582d6b93719857, e4a03e703a7e302b4d8837d1607697c96ae6f01bc6470a28faf73a9d391bf8d402148281c1]
[e0d2d196fa8c180a78e689d08a32a1b940b0e715d212acad07498b17a06092f4, e5a020b20eef8615de99c108b05f0dbda081c91897128caa336d75dffb97c4132b4d83820403]
[e7db9b40c2d12997cfca8f52c22c3e799513d47bce745ae66ac37494c7ca69d2, f8b180a0e8ae816088497c9d6c5cb8578b150dd58e705533999a11204b1fdf3543749be1a0fec5090a04a9c55acea11d87007973dc1ae163309aae4f2f542fbc80dc951d22808080a097fac60ef017377a7c40b138b0499e1ba5ff884e03c6a4d9525f3159bc7deb5ca05466a9cb1baf6a022bb7c79e4d2d49f71875626c9a2b19a8000246c4d90447e880a09360b7f00f17085fa7da9ffe187a43465fa075046a1a556a895d888effd7d88580808080808080]
[e8ae816088497c9d6c5cb8578b150dd58e705533999a11204b1fdf3543749be1, f86fa031bde8b6ac3885dcb915cc925cb7c77982d93f02e8ee4a06f0a7cee3ad15c06db84c02f849c580808003c0a096b08b4e3554d673862ac5fb2d7a757a94a1886ecb858e8e94a6c8f3489bfed1a0b2e93dcf55621d970e6e35b593f19dccc78b4dd2d2cc02674933bfbfed404a3a80]
[e932eaddd1aee2a5799c39daa6523a5bf33100216a2bc3cf29008f3e1d939300, e2a036be4f155c5ef2ebd3772b228f2f00681e4ed5826cdb3b1943cc11ad15ad1d2801]
[ecbb5283cf6d6fe8c4f5915e5a5f189e09a03ee6e2b8ea97825c8e6204974031, e2a020dc280767db1cc414f78a77e62e8a988bad8e0898ffb182e563f1ea6f262a2261]
[f5acfb88f61589f8698392494e7e2b8c8220c90aa44ffd032e51cf7078ffa98d, f7a02038389e4c02cdfbb8a265979b7de2b09d2bdc3fbaac91cb8bb8b9054ac3fb809594b11659c1d3fba6c9191dae770e61faf0ec4e8072]
[fec5090a04a9c55acea11d87007973dc1ae163309aae4f2f542fbc80dc951d22, f83ea03e5b33e27a71f3ac0bd42b16d1eef796f12a617bed91c4a2cf3ce386b91a6f6c9c01da8095446c3b15f9926687d2c40534fdb5640000000000008001c0]

func (dbm *databaseManager) PutTrieNodeToBatch(batch Batch, hash common.ExtHash, node []byte) 
- batch.Put(TrieNodeKey(hash), node)
```

# 1_tx_broadcast Extract

## DB Entry: Body

```diff
[620000000000000000f484ef9414585f80efa4918c1d43859073556022a6394da54d4e86b5b485cf4a, c1c0] 

# [1번 블록] dbm.WriteBody(block.Hash(), block.NumberU64(), block.Body())
+ [6200000000000000018f82d5ac5647dd9696371b3cc558c0c0f9f74b02fdcf8468acfb1c7d096fe8e7, c1c0]

# [2번 블록] dbm.WriteBody(block.Hash(), block.NumberU64(), block.Body())
+ [620000000000000002749d14765aa26772eda90064bcdf00ea2d2cfe328a6a141dde865012bffd2206, f872f870f86e80850ba43b7400825208948c53ffef58a4e677592354eba1f95b0ea777f96888016345785d8a0000808207f3a0b50e1b4cb415ad25430a92fbb4fdee0b67b3d461da64a91ef58ece34acd1e299a0118fc25940a88b993665613aaa52b3a67739a498e80362f05449ecdcf455c87b]
```

## DB Entry: Header
```diff
+ [48749d14765aa26772eda90064bcdf00ea2d2cfe328a6a141dde865012bffd2206, 0000000000000002]
+ [488f82d5ac5647dd9696371b3cc558c0c0f9f74b02fdcf8468acfb1c7d096fe8e7, 0000000000000001]
[48f484ef9414585f80efa4918c1d43859073556022a6394da54d4e86b5b485cf4a, 0000000000000000]

- [4c617374426c6f636b, f484ef9414585f80efa4918c1d43859073556022a6394da54d4e86b5b485cf4a]
+ [4c617374426c6f636b, 749d14765aa26772eda90064bcdf00ea2d2cfe328a6a141dde865012bffd2206]
+ [4c61737446617374, 749d14765aa26772eda90064bcdf00ea2d2cfe328a6a141dde865012bffd2206]
- [4c617374486561646572, f484ef9414585f80efa4918c1d43859073556022a6394da54d4e86b5b485cf4a]
+ [4c617374486561646572, 749d14765aa26772eda90064bcdf00ea2d2cfe328a6a141dde865012bffd2206]
[6800000000000000006e, f484ef9414585f80efa4918c1d43859073556022a6394da54d4e86b5b485cf4a]
[680000000000000000f484ef9414585f80efa4918c1d43859073556022a6394da54d4e86b5b485cf4a, f90474a00000000000000000000000000000000000000000000000000000000000000000940000000000000000000000000000000000000000a0e7db9b40c2d12997cfca8f52c22c3e799513d47bce745ae66ac37494c7ca69d2a056e81f171bcc55a6ff8345e692c0f86e5b48e01b996cadc001622fb5e363b421a056e81f171bcc55a6ff8345e692c0f86e5b48e01b996cadc001622fb5e363b421b90100000000000000000000000000000000000000000000000000000000000000000000000000000000000000000000000000000000000000000000000000000000000000000000000000000000000000000000000000000000000000000000000000000000000000000000000000000000000000000000000000000000000000000000000000000000000000000000000000000000000000000000000000000000000000000000000000000000000000000000000000000000000000000000000000000000000000000000000000000000000000000000000000000000000000000000000000000000000000000000000000000000000000000000000000000000000180808466095a1e80b87c0000000000000000000000000000000000000000000000000000000000000000f85ad594b11659c1d3fba6c9191dae770e61faf0ec4e8072b8410000000000000000000000000000000000000000000000000000000000000000000000000000000000000000000000000000000000000000000000000000000000c0b901c4b901c17b22676f7665726e616e63652e646572697665736861696d706c223a302c22676f7665726e616e63652e676f7665726e616e63656d6f6465223a226e6f6e65222c22676f7665726e616e63652e676f7665726e696e676e6f6465223a22307830303030303030303030303030303030303030303030303030303030303030303030303030303030222c22676f7665726e616e63652e756e69747072696365223a302c22697374616e62756c2e636f6d6d697474656573697a65223a32312c22697374616e62756c2e65706f6368223a3630343830302c22697374616e62756c2e706f6c696379223a302c227265776172642e64656665727265647478666565223a66616c73652c227265776172642e6d696e696d756d7374616b65223a2232303030303030222c227265776172642e6d696e74696e67616d6f756e74223a2230222c227265776172642e70726f706f736572757064617465696e74657276616c223a333630302c227265776172642e726174696f223a223130302f302f30222c227265776172642e7374616b696e67757064617465696e74657276616c223a38363430302c227265776172642e75736567696e69636f656666223a66616c73657d808505d21dba00b860000000000000000000000000000000000000000000000000000000000000000000000000000000000000000000000000000000000000000000000000000000000000000000000000000000000000000000000000000000000000000000000000a00000000000000000000000000000000000000000000000000000000000000000]
+ [6800000000000000016e, 8f82d5ac5647dd9696371b3cc558c0c0f9f74b02fdcf8468acfb1c7d096fe8e7]
+ [6800000000000000018f82d5ac5647dd9696371b3cc558c0c0f9f74b02fdcf8468acfb1c7d096fe8e7, f902f2a0f484ef9414585f80efa4918c1d43859073556022a6394da54d4e86b5b485cf4a94b11659c1d3fba6c9191dae770e61faf0ec4e8072a0e7db9b40c2d12997cfca8f52c22c3e799513d47bce745ae66ac37494c7ca69d2a056e81f171bcc55a6ff8345e692c0f86e5b48e01b996cadc001622fb5e363b421a056e81f171bcc55a6ff8345e692c0f86e5b48e01b996cadc001622fb5e363b421b90100000000000000000000000000000000000000000000000000000000000000000000000000000000000000000000000000000000000000000000000000000000000000000000000000000000000000000000000000000000000000000000000000000000000000000000000000000000000000000000000000000000000000000000000000000000000000000000000000000000000000000000000000000000000000000000000000000000000000000000000000000000000000000000000000000000000000000000000000000000000000000000000000000000000000000000000000000000000000000000000000000000000000000000000000000000000101808466095d534ab8c0d983010c01846b6c617988676f312e32322e308664617277696e000000000001f89ed594b11659c1d3fba6c9191dae770e61faf0ec4e8072b8415648ec85d9febc893bd36828245ceee3117358f2e6ee161cf26e24267b95b9fe026fdfe4bd6490833469358b26df95f12ff8f40afe535625da4544a2ad790a8c01f843b841d6659fdf57690259be6874146f3fe2d6ff6c3b6337defa169aaa0ccd64f05c4a637d8010962e0da103154773feea7dde4c280b260024ded757b4f7bcd35c4e800180808505d21dba00b860b1b5ab9b908365e8598fb2067f2dbcc524c2c0423c7f220b1b66a616b40bdd393595b6ebc96e760d37a95354aaabb870041560a102003d4918f028e4bb79aa5d3443b526b8835bd2b7814d3bc958ae24f63b6c58274da2b1a4d231d73fd2a87ea06f8d94981b430fe90357e87ca1a048c36fc6137f34cda1f895063008705dd05a]
+ [6800000000000000026e, 749d14765aa26772eda90064bcdf00ea2d2cfe328a6a141dde865012bffd2206]
+ [680000000000000002749d14765aa26772eda90064bcdf00ea2d2cfe328a6a141dde865012bffd2206, f902f4a08f82d5ac5647dd9696371b3cc558c0c0f9f74b02fdcf8468acfb1c7d096fe8e794b11659c1d3fba6c9191dae770e61faf0ec4e8072a05f33454c77feb4342d275cda4bbe2bbc48390926707243a0fe00d8b9397a85e3a0571ddd2c39d6bb99f4c0057e1cabffb967c0c387c23072d2778a67d2dc4c6dafa0056b23fbba480696b65fe5a59b8f2148a1299103c4f57df839233af2cf4ca2d2b901000000000000000000000000000000000000000000000000000000000000000000000000000000000000000000000000000000000000000000000000000000000000000000000000000000000000000000000000000000000000000000000000000000000000000000000000000000000000000000000000000000000000000000000000000000000000000000000000000000000000000000000000000000000000000000000000000000000000000000000000000000000000000000000000000000000000000000000000000000000000000000000000000000000000000000000000000000000000000000000000000000000000000000000000000000000001028252088466095d714ab8c0d983010c01846b6c617988676f312e32322e308664617277696e000000000002f89ed594b11659c1d3fba6c9191dae770e61faf0ec4e8072b8417961018765b4bf53cf75452b28d49df6b2b5fff21698280514220dcdd8aa6ff47cdcff1375d2d2b3a816232a871d4f88e2b188dbc247042d9a811d74773cf2e401f843b8415ddf39695aeffa1882f08efea9fa217482a6d8e325c9fbeb909e13e1eb6231f6270dacade57a56db48b2d6b9ea81189ab509c4a6b9f83174f582e6a1568695a10180808505d21dba00b860868197d1d9d6539dcbecc35afae4130c8f928606be94b792aae63180394f9cbe907fbb05bef770c97c6a9c002faa7378102fbc7ce420d03dded3c88fb88c2ccdb8cf44861be7ce92c08bd4b1521029fe9e44ac430c4990637fd5b4d1732e4156a04addef7500c8cc20cc79490b0f428c328d3b0bfa6def4e20e3ddc52b478df8c5]
```

## DB Entry: Misc

```diff
+ [446174616261736556657273696f6e, 04]
[676f7665726e616e63650000000000000000, 7b22676f7665726e616e63652e646572697665736861696d706c223a302c22676f7665726e616e63652e676f7665726e616e63656d6f6465223a226e6f6e65222c22676f7665726e616e63652e676f7665726e696e676e6f6465223a22307830303030303030303030303030303030303030303030303030303030303030303030303030303030222c22676f7665726e616e63652e756e69747072696365223a302c22697374616e62756c2e636f6d6d697474656573697a65223a32312c22697374616e62756c2e65706f6368223a3630343830302c22697374616e62756c2e706f6c696379223a302c227265776172642e64656665727265647478666565223a66616c73652c227265776172642e6d696e696d756d7374616b65223a2232303030303030222c227265776172642e6d696e74696e67616d6f756e74223a2230222c227265776172642e70726f706f736572757064617465696e74657276616c223a333630302c227265776172642e726174696f223a223130302f302f30222c227265776172642e7374616b696e67757064617465696e74657276616c223a38363430302c227265776172642e75736567696e69636f656666223a66616c73657d]
[676f7665726e616e6365496478486973746f7279, 5b305d]
[680000000000000000f484ef9414585f80efa4918c1d43859073556022a6394da54d4e86b5b485cf4a74, 01]
+ [6800000000000000018f82d5ac5647dd9696371b3cc558c0c0f9f74b02fdcf8468acfb1c7d096fe8e774, 02]
+ [680000000000000002749d14765aa26772eda90064bcdf00ea2d2cfe328a6a141dde865012bffd220674, 03]
[6b6c61792d636f6e6669672df484ef9414585f80efa4918c1d43859073556022a6394da54d4e86b5b485cf4a, 7b22636861696e4964223a313030302c22697374616e62756c436f6d70617469626c65426c6f636b223a302c226c6f6e646f6e436f6d70617469626c65426c6f636b223a302c22657468547854797065436f6d70617469626c65426c6f636b223a302c226d61676d61436f6d70617469626c65426c6f636b223a302c226b6f7265436f6d70617469626c65426c6f636b223a302c227368616e67686169436f6d70617469626c65426c6f636b223a302c2263616e63756e436f6d70617469626c65426c6f636b223a302c22647261676f6e436f6d70617469626c65426c6f636b223a302c226b6970313033436f6d70617469626c65426c6f636b223a302c226b6970313033436f6e747261637441646472657373223a22307830303030303030303030303030303030303030303030303030303030303030303030303030303030222c2272616e64616f436f6d70617469626c65426c6f636b223a302c2272616e64616f5265676973747279223a7b227265636f726473223a7b224b4950313133223a22307830303030303030303030303030303030303030303030303030303030303030303030303030343032227d2c226f776e6572223a22307862313136353963316433666261366339313931646165373730653631666166306563346538303732227d2c22697374616e62756c223a7b2265706f6368223a3630343830302c22706f6c696379223a302c22737562223a32317d2c22756e69745072696365223a302c22646572697665536861496d706c223a302c22676f7665726e616e6365223a7b22676f7665726e696e674e6f6465223a22307830303030303030303030303030303030303030303030303030303030303030303030303030303030222c22676f7665726e616e63654d6f6465223a226e6f6e65222c22676f76506172616d436f6e7472616374223a22307830303030303030303030303030303030303030303030303030303030303030303030303030303030222c22726577617264223a7b226d696e74696e67416d6f756e74223a302c22726174696f223a223130302f302f30222c2275736547696e69436f656666223a66616c73652c2264656665727265645478466565223a66616c73652c227374616b696e67557064617465496e74657276616c223a38363430302c2270726f706f736572557064617465496e74657276616c223a333630302c226d696e696d756d5374616b65223a323030303030307d7d7d]
+ [736e617073686f74f484ef9414585f80efa4918c1d43859073556022a6394da54d4e86b5b485cf4a, 7b2265706f6368223a3630343830302c226e756d626572223a302c2268617368223a22307866343834656639343134353835663830656661343931386331643433383539303733353536303232613633393464613534643465383662356234383563663461222c22766f746573223a5b5d2c2274616c6c79223a5b5d2c2276616c696461746f7273223a5b22307862313136353963316433666261366339313931646165373730653631666166306563346538303732225d2c22706f6c696379223a302c2273756267726f757073697a65223a32312c227265776172644164647273223a6e756c6c2c22766f74696e67506f776572223a6e756c6c2c22776569676874223a6e756c6c2c2270726f706f73657273223a6e756c6c2c2270726f706f73657273426c6f636b4e756d223a302c2264656d6f74656456616c696461746f7273223a6e756c6c7d]
```

## DB Entry: Receipts

```diff
[720000000000000000f484ef9414585f80efa4918c1d43859073556022a6394da54d4e86b5b485cf4a, c0]
# common.Bytes2Hex(blockReceiptsKey(blockNum, blockHash))
+ [7200000000000000018f82d5ac5647dd9696371b3cc558c0c0f9f74b02fdcf8468acfb1c7d096fe8e7, c0] 
+ [720000000000000002749d14765aa26772eda90064bcdf00ea2d2cfe328a6a141dde865012bffd2206, f90141f9013e01b9010000000000000000000000000000000000000000000000000000000000000000000000000000000000000000000000000000000000000000000000000000000000000000000000000000000000000000000000000000000000000000000000000000000000000000000000000000000000000000000000000000000000000000000000000000000000000000000000000000000000000000000000000000000000000000000000000000000000000000000000000000000000000000000000000000000000000000000000000000000000000000000000000000000000000000000000000000000000000000000000000000000000000000000000000000000000a095a13a5e23b815e732416e7f94d9958e0d312f1c1da6f893f547540c3b79bf49940000000000000000000000000000000000000000c0825208]
```

## DB Entry: Txlookup

```diff
# db.Put(TxLookupKey(tx.Hash()), data);
+ [6c95a13a5e23b815e732416e7f94d9958e0d312f1c1da6f893f547540c3b79bf49, e3a0749d14765aa26772eda90064bcdf00ea2d2cfe328a6a141dde865012bffd22060280]
```

## DB Entry: statetrie

**No Change**

> For statetrie, flush to DB every BlockInterval(=128)

# 2_129_block_mined Extract

## DB Entry: statetrie

```diff
+ [00a0106cfdd4eb1daee9fadc27bcb8504b9dbdcf4bae8877f242bc8e6d19f61c, f83ea03f3b91639cbb77c038e37d8967a68e36d9f3e0bc15b1bac249b2b51a8aa2cc859c01da0195446c3b15f9926687d2c40534fdb3fedd0b8bf430008001c0]
+ [2ffb37f17f34c9b54cd1882d31327570ea3c6b4acd880416a7ea5d81228ec7ef, f83ea03e5b33e27a71f3ac0bd42b16d1eef796f12a617bed91c4a2cf3ce386b91a6f6c9c01da8095446c3b15f9926687d2c40534fdb564eebe0b40e8008001c0]
+ [5f33454c77feb4342d275cda4bbe2bbc48390926707243a0fe00d8b9397a85e3, f8d180a0e8ae816088497c9d6c5cb8578b150dd58e705533999a11204b1fdf3543749be1a02ffb37f17f34c9b54cd1882d31327570ea3c6b4acd880416a7ea5d81228ec7ef808080a097fac60ef017377a7c40b138b0499e1ba5ff884e03c6a4d9525f3159bc7deb5ca05466a9cb1baf6a022bb7c79e4d2d49f71875626c9a2b19a8000246c4d90447e880a000a0106cfdd4eb1daee9fadc27bcb8504b9dbdcf4bae8877f242bc8e6d19f61c8080808080a0a37ed00e9b1ed642d9ec8bcf8d8b3ae078c71aee104337d756dd8b6c4746165280]

# [preImagePrefix + ...,  tx.toAddress]
+ [7365637572652d6b65792df237bbd177e17e346d457ab92b5222a942017dbd345f28fb4aaa0a89ed4e2251, 8c53ffef58a4e677592354eba1f95b0ea777f968]
+ [a37ed00e9b1ed642d9ec8bcf8d8b3ae078c71aee104337d756dd8b6c47461652, f1a03237bbd177e17e346d457ab92b5222a942017dbd345f28fb4aaa0a89ed4e22518f01cd8088016345785d8a00008001c0]
```